:020000040800F2
:1000000000000220A5B60008D1100008D310000897
:10001000D5100008D7100008D91000080000000013
:10002000000000000000000000000000E161000886
:10003000DB10000800000000816200089B580008E7
:10004000F9B60008F9B60008F9B60008F9B60008D4
:10005000F9B60008F9B60008F9B60008F9B60008C4
:10006000F9B60008F9B60008F9B60008F9B60008B4
:10007000F9B60008F9B60008F9B60008F9B60008A4
:10008000F9B60008F9B60008F9B60008F9B6000894
:10009000F9B60008F9B60008F9B60008F9B6000884
:1000A000F9B60008DD100008F9B60008F9B6000836
:1000B000F9B60008F9B60008F9B60008F9B6000864
:1000C000F9B60008F9B60008F9B60008F9B6000854
:1000D000F9B60008F9B60008F9B60008F9B6000844
:1000E000ED100008F9B6000800000000F9B600089D
:1000F000F9B60008F9B60008F9B60008F9B6000824
:10010000F9B60008F9B60008F9B60008F9B6000813
:10011000F9B60008F9B60008F9B60008F9B6000803
:10012000F9B60008F9B60008F9B60008F9B60008F3
:10013000F9B60008F9100008F9B60008F9B6000889
:10014000F9B60008F9B60008000000000000000041
:10015000F9B60008F9B60008F9B60008F9B60008C3
:10016000F9B60008F9B60008F9B60008F9B60008B3
:10017000F9B60008F9B60008F9B60008F9B60008A3
:10018000F9B60008F9B60008F9B60008F9B6000893
:10019000F9B60008F9B60008F9B60008F9B6000883
:1001A000F9B60008F9B60008F9B60008F9B6000873
:1001B000F9B60008F9B60008F9B60008F9B6000863
:1001C000F9B60008F9B60008F9B60008F9B6000853
:1001D000F9B60008F9B60008F9B60008F9B6000843
:1001E000F9B60008F9B60008F9B60008F9B6000833
:1001F000F9B60008F9B60008F9B60008F9B6000823
:10020000F9B60008F9B60008F9B60008F9B6000812
:10021000F9B60008F9B60008F9B60008F9B6000802
:10022000F9B60008F9B60008F9B6000800000000A9
:10023000F9B60008F9B60008F9B60008F9B60008E2
:10024000F9B60008F9B60008F9B60008F9B60008D2
:10025000F9B60008F9B60008F9B60008F9B60008C2
:10026000F9B60008F9B60008F9B60008F9B60008B2
:10027000F9B60008F9B60008F9B60008F9B60008A2
:10028000F9B60008F9B60008F9B600080000000049
:08029000F9B60008F9B60008F8
:1002A000034613F8012B002AFBD1181A01387047B6
:1002B00001F0FF01102A2BDB10F0070F08D010F817
:1002C000013B013A8B422DD010F0070F42B3F6D11B
:1002D000F0B441EA012141EA014122F007047FF034
:1002E00000070023F0E80256083C85EA010586EA8B
:1002F000010685FA47F5A3FA87F586FA47F6A5FAC7
:1003000087F68EB9EED1F0BC01F0FF0102F00702D2
:1003100032B110F8013B013A83EA010313B1F8D17D
:100320000020704701387047002D06BF354603385E
:10033000073815F0010F07D1013015F4807F02BF97
:10034000013015F4C03F0130F0BC0138704700BFE8
:100350007BB972B90029BEBF00204FF0004106E012
:1003600008BF00281CBF6FF000414FF0FF3000F0C5
:100370003FB8ADF1080C6DE904CE002909DB002B74
:100380001ADB15F01BF8DDF804E0DDE9022304B008
:100390007047404261EB4101002B1BDB15F00EF86A
:1003A000DDF804E0DDE9022304B0404261EB4101E5
:1003B000524263EB43037047524263EB430314F032
:1003C000FDFFDDF804E0DDE9022304B0404261EB0B
:1003D00041017047524263EB430314F0EFFFDDF835
:1003E00004E0DDE9022304B0524263EB43037047AB
:1003F000704700BF10F8012B11F8013B012A28BFFC
:100400009A42F7D0D01A70470348044B834202D077
:10041000034B03B118477047300100203001002022
:10042000000000000548064B1B1AD90F01EBA30181
:10043000491002D0034B03B1184770473001002028
:10044000300100200000000010B5064C237843B9AD
:10045000FFF7DAFF044B13B10448AFF30080012328
:10046000237010BD784B002000000000805C010864
:1004700008B5054B1BB105490548AFF30080BDE841
:100480000840FFF7CFBF00BF000000007C4B0020FA
:10049000805C010870470000F0B585B0424FC02174
:1004A0003970A8227A700024BC700323FB703F4E81
:1004B000FF2333707370B370F023F3703C4D2970D9
:1004C0006A70AC700823EB702146204606F0C4FE2B
:1004D0003A787B781B0443EA0263BA7843EA022342
:1004E000F9780B431A0202F47F0242EA0162190A08
:1004F00001F47F410A4342EA13632E490B603278CC
:1005000073781B0443EA0263B27843EA0223F0786B
:1005100003431A0202F47F0242EA0062180A00F45E
:100520007F40024342EA1363234A136028786B78C2
:100530001B0443EA0063A87843EA0023ED782B43C9
:10054000180200F47F0040EA05601D0A05F47F45AB
:10055000284340EA1360194B1860194D194802905E
:10056000194801900094284608F0E6FB284608F058
:1005700075FC284608F078FC1449284608F0F4FC7D
:10058000134E2422214630460BF0ABFA114B336058
:100590004FF4806373611023B361324629460E48DD
:1005A00005F0C0F905B0F0BDC04B0020BC4B0020E9
:1005B000B84B0020CC4B0020C84B0020C44B00207F
:1005C000D04B002015720008AD0900089504000802
:1005D000944B0020A45C0108450B000800207047E4
:1005E00000B583B000230193054B1B781BB1019824
:1005F00003B05DF804FB01A9024801F041FDF6E7F4
:10060000144D00205C4C002038B505464FF0FF31FA
:100610000B4B186805F0F0FA0028F7D101E0002C28
:10062000F4D02846FFF7DCFF04460028F7D02B69FA
:10063000294698470028F2D0204608F0ABFDEEE7A7
:10064000104D002070B58CB00C463026324600218B
:1006500068460BF046FA3246002168460BF041FA34
:100660002246002303E01168F9B1013312682AB36E
:10067000032B4FD8516803EB430C0CA800EB8C0CF8
:100680004CF8301C51894CF82C1C002BEBD003F19A
:10069000FF3C03EB43000DEB80010CEB4C0C0CA872
:1006A00000EB8C0C4CF8281CDDE703EB43010CA895
:1006B00000EB8101002041F8280CD6E72289174B76
:1006C0005A60C3F808D05C63204608F0D3FE13E0FC
:1006D000134802F099F810F0020F15D04FF4FA61A8
:1006E000104B186805F088FA0D4801F047FD6FF0CF
:1006F000010010F1020F0FD10849094801F08CFCEC
:100700000028E5D10020F4E7204608F043FD6FF013
:100710000B00EEE76FF00B000CB070BD244C002016
:100720005C4C00200C4D00202DE9F043A5B00446A0
:100730006422002102A80BF0D4F9614E614B3360B2
:1007400000258DF8005080238DF80130E1238DF8CD
:1007500002308DF803508DF804508DF80550C6F81E
:1007600004D001273772584BF360584B33614FF474
:10077000C0637361304601F091FF8046DFF86C91F1
:100780003822294648460BF0ACF92123C9F800303D
:100790004FF44033C9F814304D4807F03DFA0623B2
:1007A00084F82C3073681A7884F826205A7884F8F4
:1007B00027209A7884F82820DA7884F829201A7972
:1007C00084F82A205B7984F82B3040F2DC53A38430
:1007D00094F82D3043F00A0384F82D302A46294638
:1007E000384605F0ADF93B4B18602A462946384695
:1007F00005F0A6F9384B18601BAE24222946304676
:100800000BF06FF9354B1B934FF4AF7320933023EC
:10081000219332462146324805F084F8314D324961
:10082000284600F0D3FC284600F0EFFC40BBB8F1AE
:10083000000F3FD12B4800F017FD012827DD0428C9
:100840002CD005282ED003282FD14FF480474FF00D
:10085000000802AE1A4D3146284601F0E9FDCDF8F8
:10086000208007973146284601F0D5FE284601F042
:100870003BFB204608F0F8FA204608F033FB1BE06B
:10088000204608F053FB204608F00CFB14E02046FD
:1008900008F04CFB204608F005FB0DE000274FF464
:1008A0000058D6E70027B846D3E74FF480474FF407
:1008B0000058CEE700F042FA25B0BDE8F08300BF53
:1008C0005C4C00200080024030010020900100209C
:1008D000387A0108104D00200C4D0020AC5C010856
:1008E00009060008044C002000000020244C0020D1
:1008F00008B50146074807F0E3F9074B1B78012BC1
:1009000000D008BD044B00221A70044B186805F093
:10091000A7F9F6E7387A0108144D0020104D0020A1
:1009200008B502F0EBFF08BD08B5024801F082FEF1
:10093000002008BD5C4C002008B513460A4601465D
:10094000034801F010FD00B908BD4FF0FF30FBE790
:100950005C4C002008B513460A460146034801F0E6
:1009600033FD00B908BD4FF0FF30FBE75C4C0020C1
:1009700008B5024B186805F073F908BD104D00204A
:1009800008B5024B186805F06BF908BD0C4D002046
:1009900008B501F03CFF10F0800F00D108BD024BFC
:1009A000186805F05DF9F9E7104D002010B5044610
:1009B00070B1732384F82E30742384F82F30084BE1
:1009C0006361084BA3612046FFF7AEFE002010BD17
:1009D000054B40F21522054905480BF047F8E8E7BA
:1009E00079A0000845060008B45C0108D85C01083D
:1009F000E85C010808B502F081FF08BDF0B58DB0D4
:100A000000230793089309930A930B930268474BBB
:100A10009A4201D00DB0F0BD454BD3F8D82042F436
:100A20000042C3F8D820D3F8D82002F40042009244
:100A3000009AD3F8D82042F48032C3F8D820D3F8F3
:100A4000D82002F480320192019AD3F8D82042F4DF
:100A50000032C3F8D820D3F8D82002F40032029232
:100A6000029AD3F8E02042F00402C3F8E020D3F861
:100A7000E02002F004020392039AD3F8E02042F04F
:100A80000102C3F8E020D3F8E02002F00102049252
:100A9000049AD3F8E02042F00202C3F8E020D3F831
:100AA000E02002F002020592059AD3F8E02042F01D
:100AB0004002C3F8E020D3F8E03003F0400306938F
:100AC000069B32230793022708970B260B9607AD48
:100AD0002946184802F09AFC8623079308970024B9
:100AE00009940A940B962946134802F08FFC4FF4A0
:100AF00000530793089709940A940B9629460F48C8
:100B000002F084FC4FF420530793089709940A9449
:100B10000B9629460A4802F079FC224605213D2021
:100B200002F048FE3D2002F055FE73E700800240CF
:100B300000440258000802580000025800040258FD
:100B4000001802582DE9F0439BB0044664220021AE
:100B500001A80AF0C6FF00252E462F4628E02C48A3
:100B600001F00EFA204608F09DF9204608F0DEF963
:100B70001BE04FF400554FF4804601270DF10409A6
:100B8000DFF88C804946404601F052FC07950696F6
:100B90004946404601F03FFD404601F0A5F9204698
:100BA00008F062F9204608F09DF9642004F014FF73
:100BB000184800F059FB94F82D3013F0040F01D0C1
:100BC0000128CCDD13F0040FEFD10128EDDD023850
:100BD000032815D801A353F820F000BF730B0008B9
:100BE000F70B0008ED0B0008070C00084FF4005548
:100BF00000260127C2E700254FF480460127BDE704
:100C0000002FD2D0BAE700252E460127B6E700BF55
:100C10005C4C0020044C002010B582B004460E4805
:100C200007F01EF888B1034600F1200222600B4A4B
:100C300002614FF4C06201922268009241220021B9
:100C4000084608F03DFA02B010BD054B01221A70AB
:100C500000232360F7E700BF387A0108F108000895
:100C6000144D002030B4A2F12004002542F8205C8D
:100C700022F8185C22F8163C056825B10D682C6036
:100C80000C60016805E00460FAE7088918440881EF
:100C900009680029F9D183B1114602F01F021344FB
:100CA000BFF34F8F064AC2F85C122031203B002B65
:100CB000F8DCBFF34F8FBFF36F8F30BC704700BFBE
:100CC00000ED00E008B508F065FA08BD30B585B064
:100CD0000024009401940294039402F07FFD012308
:100CE0008DF800308DF801404FF0405201921122F2
:100CF0008DF808208DF809408DF80A4003228DF800
:100D00000B208DF80C308DF80D408DF80E408DF8CD
:100D10000F40684602F080FD042002F06DFD05B032
:100D200030BD000008B50268034B9A4200D008BDF0
:100D300002F0D8FDFBE700BF0000014072B6FEE7FD
:100D400000B59DB04C22002109A80AF0CAFE20225D
:100D5000002101A80AF0C5FE042002F08FFC002348
:100D60000093284BDA6A22F00102DA62DB6A03F0B0
:100D700001030093244A936923F4404343F400435E
:100D80009361936903F440430093009B1E4B9B695E
:100D900013F4005FFAD00223099301220C9240223F
:100DA0000D92129300221392042114911C2115918B
:100DB00016930521179118930C2319931A924FF447
:100DC00080631B9309A801F025FDB0B93F2301936F
:100DD0000323029300230393049340230593069374
:100DE0004FF480620792089304210DEB010002F09A
:100DF00065F920B91DB05DF804FBFFF79FFFFFF711
:100E00009DFF00BF000400580048025810B582B092
:100E1000364B0022C3F88420BFF34F8F5A6922F467
:100E200080325A61BFF34F8FD3F88040C4F34E3005
:100E300000E01846C4F3C90243F6E07303EA401326
:100E400043EA82732949C1F874321346013A002BF0
:100E5000F2D1431E0028ECD1BFF34F8FBFF36F8F49
:100E6000FFF734FF4FF6FF7300E01346204A126885
:100E700012F4004F03D05A1E002BF6DC1346002B51
:100E80001ADB02F001FDFFF75BFF194BD3F8E020FE
:100E900042F00072C3F8E020D3F8E03003F00073B2
:100EA0000193019B002002F0D1FB0021084602F0D3
:100EB000DDFB4FF6FF7302E0FFF740FF13460C4ADD
:100EC000126812F4004F03D15A1E002BF6DC1346B1
:100ED000002B08DB00F00EF804F0ECFC00F0E8F862
:100EE00004F0FAFCFEE7FFF729FF00BF00ED00E089
:100EF0000044025800B58BB005A9002305934B6050
:100F00008B60CB600B611F4BD3F8E02042F00402F2
:100F1000C3F8E020D3F8E02002F004020192019A25
:100F2000D3F8E02042F00102C3F8E020D3F8E0203B
:100F300002F001020292029AD3F8E02042F002028B
:100F4000C3F8E020D3F8E02002F002020392039AF3
:100F5000D3F8E02042F04002C3F8E020D3F8E030BC
:100F600003F040030493049B4FF4C85305930223FA
:100F700006930A230993044802F048FA0BB05DF87F
:100F800004FB00BF004402580000025810B5A4B092
:100F9000FFF782FA40F6B83004F01EFD384B01939B
:100FA000384B0093384B394A002108460BF00CFFB0
:100FB0001FAC20460BF08EFE354B1F93354B209314
:100FC000354B2193354B229320460BF091FE40B9CF
:100FD0004FF48041324802F02FFB642004F0FCFC07
:100FE000F6E702AC20460BF0A1FE0DF12C0EA44654
:100FF000BCE80F00AEE80F00DCF80030CEF800309F
:101000000BAB0022114610A80BF096FD40B14FF437
:101010008041234802F010FB642004F0DDFCF6E779
:1010200009AC10AB1F4A204920460BF0CFFD0CF055
:1010300065FB02461D4B21461EA80BF009FE00234E
:101040001D930BE001224FF48041154802F0EEFAA7
:101050001D9B01331D93642004F0BEFC0121104848
:1010600002F0EAFA00221DA91EA80BF041FD00289B
:10107000E8D100224FF48041094802F0D7FAE7E7AF
:1010800021B50008F5B40008D5B4000869B400081B
:1010900095B50008B9B50008C5B5000829B600081F
:1010A0000004025850720108105D0108205D01081B
:1010B00008B5044A0021044804F034FC034B1860CE
:1010C00008BD00BF447A01088D0F00081C4D0020A8
:1010D000FEE7FEE7FEE7FEE7FEE7704708B50248D9
:1010E00000F094F908BD00BF204D002008B5002095
:1010F00000F01CF908BD000008B5024801F071F8C5
:1011000008BD00BF5C4C002000B583B00A4BD3F88B
:10111000F42042F00202C3F8F420D3F8F43003F0D4
:1011200002030193019B00220F216FF0010002F0E6
:1011300041FB03B05DF804FB004402580F2801D9BD
:101140000120704710B58AB00446002201461920DC
:1011500002F030FB192002F03DFB174B1C60174BCF
:10116000D3F8F02042F00102C3F8F020D3F8F030B9
:1011700003F001030093009B01A902A802F01CF9EF
:1011800002F008F943000E4AA2FB03239B0C013B2B
:101190000C480D4A026040F2E732C260436000230F
:1011A0000361836000F072FA10B101200AB010BD33
:1011B000044800F0DFF8F9E7180000200044025866
:1011C00083DE1B43204D00200000014088B1CA6827
:1011D00092B18A689AB10A69A2B10A6882604A68C3
:1011E000C260CA6842618A6802610A69826100203D
:1011F00070474FF0FF3070474FF0FF3070474FF0AF
:10120000FF3070474FF0FF30704770B582B0002359
:10121000019344680CBB0546836803B198472023BB
:101220002B60002602E06FF0040601341F2C0DD85D
:101230006B6901AA1221204698470028F3DB019B25
:1012400003F01F03A342F0D12C6000262B681F2B54
:1012500007D81EB901236B6000E00026304602B0BB
:1012600070BD6FF00206F9E710B582B004460023A6
:101270000193436901AA012100689847002839DBDE
:10128000636901AA012120689847002835DB019B8A
:1012900013F0040F34D0636901AA00212068984735
:1012A000002830DB019B13F4805F0CD103F404525F
:1012B000B2F5045F2AD013F4005F29D113F4807FC4
:1012C00028D004201DE0636901AA1F2120689847E7
:1012D000002821DB019B13F4805F20D003F01C0366
:1012E000182B1ED0082B1ED0142B01D0052008E08F
:1012F000042006E06FF0040003E06FF0040000E05B
:10130000012002B010BD6FF00400FAE70220F8E7F8
:101310000320F6E70520F4E76FF00400F1E706206C
:10132000EFE70220EDE70320EBE7000008B5034BF1
:1013300003EBC00002F0F8FA08BD00BF044E002025
:1013400010B582B00190084B18784FF47A730122DF
:1013500001A94FF0940C054C0CFB004002F083FBFC
:10136000019802B010BD00BF6C4D0020704D0020F0
:101370007047000090F83D30012B3AD1022380F8ED
:101380003D300268D36843F00103D36003681B4A11
:10139000B3F1804F18BF93421DD0A2F57C42934217
:1013A00019D002F58062934215D002F58062934213
:1013B00011D002F5784293420DD0A2F56C429342CF
:1013C00009D002F59432934205D01A6842F0010226
:1013D0001A60002070479968094A0A40062A18BF17
:1013E000B2F5803F07D01A6842F001021A6000206F
:1013F0007047012070470020704700BF0000014087
:1014000007000100704770477047704770B5044689
:101410000368DE681D6915F0020F10D016F0020F88
:101420000DD06FF002021A610123037703689B69F4
:1014300013F0030F64D0FFF7E6FF0023237715F0C6
:10144000040F12D016F0040F0FD023686FF00402BF
:101450001A610223237723689B6913F4407F55D0D8
:101460002046FFF7D0FF0023237715F0080F12D096
:1014700016F0080F0FD023686FF008021A610423DA
:1014800023772368DB6913F0030F46D02046FFF76C
:10149000BAFF0023237715F0100F12D016F0100FAB
:1014A0000FD023686FF010021A6108232377236896
:1014B000DB6913F4407F37D02046FFF7A4FF0023F9
:1014C000237715F0010F02D016F0010F33D115F478
:1014D000025F02D016F0800F35D115F4807F02D064
:1014E00016F0800F37D115F0400F02D016F0400FE4
:1014F00039D115F0200F02D016F0200F3BD170BD6E
:10150000FFF780FF2046FFF77FFF96E72046FFF7B3
:1015100079FF2046FFF778FFA5E72046FFF772FF27
:101520002046FFF771FFB4E72046FFF76BFF204628
:10153000FFF76AFFC3E723686FF001021A612046D4
:10154000FFF7F0FBC3E723686FF402521A612046ED
:1015500000F0CDF8C1E723686FF480721A6120466D
:1015600000F0C6F8BFE723686FF040021A6120461A
:10157000FFF74BFFBDE723686FF020021A6120469A
:1015800000F0B4F8BBE7000070B40368394A904239
:1015900014BF00220122B0F1804F14BF144642F064
:1015A0000104ACB9344DA84214BF00250125334EC7
:1015B000B0420DD065B905F1804505F58235A842E8
:1015C00014BF0025012506F50066B04200D01DB10C
:1015D00023F070034D682B4314BB274CA04214BF6B
:1015E00000240124254DA8421AD0CCB904F180442E
:1015F00004F58234A04214BF0024012405F50065DF
:10160000A8420DD064B91E4CA04214BF002401248E
:1016100005F59A35A84203D014B91A4CA04203D15B
:1016200023F44073CC68234323F080034C692343A5
:101630008C68C4620C688462134CA04208BF42F0FC
:10164000010262B90E4A904214BF0022012204F541
:101650007054A04203D012B90A4A904201D10A69DB
:101660000263026842F004020260012242610360E8
:1016700070BC7047000001400008004000040040BA
:1016800000440140004801400004014060B310B52F
:10169000044690F83D3013B3022384F83D302146D0
:1016A00051F8040BFFF770FF012384F8483084F8E9
:1016B0003E3084F83F3084F8403084F8413084F87C
:1016C000423084F8433084F8443084F8453084F85C
:1016D000463084F8473084F83D30002010BD80F853
:1016E0003C30FFF745FED7E7012070477047704751
:1016F00070472DE9F04182B0074600230193D0F8EE
:10170000688008F1120350F82340C56E012613E0EB
:1017100001A8FFF781FA019B13B12361236010E058
:1017200000260EE04FF00143E36012E003F11202E5
:1017300057F82240013D984695B18EB12369002BA0
:10174000E6D0002EF8D0BB6D002BEBD04FF041431C
:10175000E36008F10103032BE8D9A8F10303E5E7EF
:10176000FB6EAB4212D008F1030303F00303BFF397
:101770005F8F3A6903EB430302EBC3023B6803F557
:101780008053C3F82821C7F86880FD6602B0BDE821
:10179000F081000030B48B680A6813430A7943EA89
:1017A000C2630A7B43EAC2534A7B43EA82538A7B81
:1017B00043EA4253CA7B43EA02530A7C002A40F0C0
:1017C000B0804FF4002213434A7C002A40F0AB80E3
:1017D0004FF4003213438A7C43EA02434A691343BD
:1017E0008A6913430A7F43EA02334A7F43EAC223EA
:1017F0008A7F002A40F099804FF480621343CA7FA9
:1018000043EA422391F82020002A40F090804FF4D0
:10181000807213434A6A134391F8282043EA021363
:10182000CA6A13430468226822F07F4222F47B02D2
:1018300022F4FE4222F07C0213432360CA6B91F82B
:1018400038301B0643EA426391F8302043EA824372
:1018500091F8312043EA424391F83220002A68D1BE
:101860004FF4803213434A6B13430468626822F0DA
:101870007C5222F4EF2222F4FF6222F0070213438B
:10188000636091F840204B6C43EA02220468E568EB
:101890002B4B2B401343E36091F854200B6D43EA2C
:1018A000420391F84C20002A45D1802213438A6CD0
:1018B00043EA02430468226F22F0F2021204120C7F
:1018C0001343236791F8562091F8553042EA4302BA
:1018D0000468D4F8903023F003031343C4F8903025
:1018E0000268D2F8003D23F072038C6D2343C2F8E6
:1018F000003DCB6D91F86020FAB94022134391F876
:10190000612043EA021391F8622043EAC2030168AE
:10191000D1F8302D22F07B021343C1F8303D30BCAA
:10192000704700224FE7002254E7002266E70022BA
:101930006FE7002296E70022B8E70022DEE700BF4B
:10194000F0FEFFFF10B4026802F580521468234BCA
:1019500023400C68234313600A798B6843EA0233FF
:101960000A7B43EAC232036803F5805CDCF804407A
:101970001B4B23401343CCF804304A7B0B6A43EAE9
:10198000024C026802F58052D2F80041154B234008
:1019900043EA0C03C2F800310B690A7D43EA0213E3
:1019A0004A7F43EA0232036803F5805CDCF80441B5
:1019B0000D4B23401343CCF804310B7F896941EA76
:1019C000C371026802F58052D2F80801074B034048
:1019D0000B43C2F808315DF8044B7047FD87FFFFE9
:1019E000FE2FFFFF00C0FEFFEFEFC0FFFFFFC07F35
:1019F00070B5A2B0064601258DF83350002412942C
:101A00008DF841408DF843408DF828508DF85650A0
:101A10008DF832508DF84C408DF884504FF40053BF
:101A20000F938DF85C4018948DF885408DF88640B2
:101A30004FF4C36316938DF830400B948DF83550F6
:101A40008DF836408DF840401D941B9414948DF809
:101A500064408DF87A408DF84250202320938DF811
:101A600044508DF855404FF0405309934FF4804354
:101A70000E938DF8314002231F938DF878408DF836
:101A800079408DF854408DF834501A948DF8705088
:101A900009A9FFF77FFE8DF80450029500948DF898
:101AA0001C408DF80D408DF80C404FF40013069348
:101AB0008DF8144004938DF81D404FF4067308937D
:101AC00069463046FFF73EFF22B070BD10B40022D9
:101AD00010E0C46802EB42034FEAC30C04EBC303FB
:101AE000002144F80C1059609960D960911D40F8AC
:101AF00021300132032AECD900238362036803F505
:101B000080530322C3F82C21C268036803F5805375
:101B1000C3F81421C268036803F58053C3F8202179
:101B20005DF8044B704710B4002113E0046901EB29
:101B300041034FEAC30C04EBC303002244F80C201A
:101B40005A609A60DA601A615A6101F1120240F833
:101B5000223001310329E9D90023C3650366836676
:101B6000C3668365036803F580530322C3F83021FD
:101B70000269036803F58053C3F81C21036903F16C
:101B80004802036803F58053C3F828215DF8044B2D
:101B9000704700002DE9F0419046846A00EB840311
:101BA0009B69D1F808C0DA68002AC0F29281221D30
:101BB00000EB8202D269002A40F08D810A6812F09F
:101BC000040F2CD0DA686FF30F024D6A2A43DA60F3
:101BD000DA6842F48032DA6005682A6E42F48012D4
:101BE0002A660A6812F0080F19D09A6892B2CD6A74
:101BF00042EA05429A60DA6842F40032DA60DA6852
:101C000022F440220D6B2A43DA6005686A6E42F4C2
:101C100080126A6605682A6D42F080622A650A6849
:101C200012F0100F09D09A686FF30D028D692A43E4
:101C30009A60DA6842F08062DA600A6812F0140290
:101C400020D0DA6842F08042DA60BFF35F8FDA6852
:101C500042F00042DA60661C032E00D9E61E00EB5B
:101C600086039B69DA68002A01DB01220BE000EBA6
:101C70008404A269BFF35F8FD36823F00043D3606D
:101C8000022029E1264602F1010EDCF800201A604C
:101C90009A686FF30D02DCF804502A439A60DCF86E
:101CA0000820002A48D015685D609D68DFF82CC2C6
:101CB00005EA0C0C55684CEA05459D600D6815F069
:101CC000100F41D0DD6825F4F00C0D6A4CEAC545D3
:101CD000DD60DD68DFF808C205EA0C0CCD694CEA6E
:101CE0000505DD60DD6845F48025DD600D6815F0D3
:101CF000040F06D09D6825F4404C8D6A4CEA05051A
:101D00009D60DD6845F00055DD60DD6825F08045AB
:101D1000DD60BFF35F8FDD6845F00045DD600D6875
:101D200015F0020F06D0DD6825F0607CCD684CEA26
:101D30000505DD60002564E000225A609A686FF3B3
:101D40001D429A606246B9E7DD68DFF898C105EA8E
:101D50000C0C4D684CEA0505DD600D6815F0010FAF
:101D600006D0DD6825F4403C4D694CEA0505DD6090
:101D70000D6815F0200FB9D0DD6825F0406C0D69B5
:101D80004CEA0505DD60B1E700EB840399690022A8
:101D900004E000EB8301896901321C4672450AD2D6
:101DA000BFF35F8FCB6823F00043CB60631C032B32
:101DB000EFD9E31EEDE702208EE000225A609A6818
:101DC0006FF31D429A603A4651E0DE686FF30E06EB
:101DD0004F683E43DE600E6816F0010F05D0DE68E6
:101DE00026F440364F693E43DE600135BFF35F8F16
:101DF000DE6846F00046DE60DE6826F08046DE6083
:101E000066469768002F41D0DF6827F08057DF6073
:101E100006F1010CBCF1030F01D9A6F1030C00EB94
:101E20008C039B69DE6826F00056DE60DE68002EBB
:101E3000AADB0CF1040600EB8606F669002EA3D19E
:101E40000EF1010E97683A681A609E686FF30D06EE
:101E50007A6832439A60BA68002AAED016685E602B
:101E60009E686FF31D46576846EA07469E600E68F7
:101E700016F0100FA9D0DE686FF31106CF693E434C
:101E8000DE60DE6846F48026DE60AEE7B8F1000F63
:101E90001AD09A6842F000429A60DA6842F08052A2
:101EA000DA60C26B331D00EB8303DA618662EFF305
:101EB0001082012383F31088036C2B4401330364E5
:101EC00082F31088002007E09A6822F000429A60AE
:101ED000E3E7022000E00220BDE8F081FFFF00C040
:101EE0000000FCFF0080FFFFD0F88430102B01D0F1
:101EF0000120704710B504462023C0F88430012328
:101F000083650423C366FFF7F4FB236803F580535E
:101F1000D3F8042142F00102C3F80421236803F539
:101F20008053D3F8082142F00102C3F80821236846
:101F300003F58053D3F8602142F48172C3F8602125
:101F40002268D2F8003D43F00103C2F8003D226848
:101F5000136843F0020313602268136843F001031F
:101F60001360236803F58053D3F834114DF2C10296
:101F70000A43C3F834214023C4F88430002010BD44
:101F8000D0F88430402B01D0012070472023C0F8C6
:101F90008430036803F58053D3F834111D4A0A4096
:101FA000C3F83421036803F58053D3F8042122F0E9
:101FB0000102C3F80421036803F58053D3F8082114
:101FC00022F00102C3F808210268136823F001031C
:101FD00013600268D2F8003D43F00103C2F8003DEF
:101FE0000268136823F002031360002308E003F182
:101FF000120250F82210CA6822F08042CA600133EF
:10200000032BF4D9002383651022C0F884201846DE
:10201000704700BF3E2FFFFF10B5044629B1D4F82A
:102020008430402B09D0012010BDD0F8883043F017
:102030000103C0F888300120F6E74B6BE36301220F
:102040002046FFF7A7FD38B1D4F8883043F00203EB
:10205000C4F888300120E7E7BFF34F8FA36A5A1C0A
:10206000A262032A01D9033BA362A26A2368063253
:1020700054F8222003F58053C3F820210020D3E731
:102080002DE9F84F044689B18B46D0F88430402BB7
:1020900071D1D0F85C8008F1120350F82350C36E60
:1020A000C3F1040A4FF000094F4637E0D0F88830FA
:1020B00043F00103C0F8883001205DE0EB6813F0C5
:1020C000005F02D0002323666366EE68C6F30E0647
:1020D000636EF61AEB6813F0805F03D0EB6823673A
:1020E0004FF00109B3B22A6904F1800104F17C00C8
:1020F000FEF7B8FD236E01332366636E33446366D7
:1021000000232B6108F10103032B01D9A8F103037C
:1021100003F1120254F8225001379846EB68002B65
:1021200014DB89F00103574510D27BB1EB6813F043
:10213000804F03D06B68A3672B686367EB6813F06D
:10214000005FBBD1E36F002BB8D1DBE7E36E3B440C
:10215000E36633B9C4F85C80B9F1000F05D1012002
:102160000AE02046FFF7C5FAF4E7E36FCBF800304A
:102170000020E06700E00120BDE8F88FF8B50646D2
:10218000056C446C012712E0631C032B22D9033C2D
:102190000DE0FEF797FD231D06EB83030022DA61B5
:1021A000631C032B00D9E31E356473641C469DB188
:1021B00097B1013D231D06EB8303D8690028E3D0C6
:1021C000F36804EB440203EBC203DB68002BE0DAA4
:1021D0000027ECE71C46EAE70020F8BD704770478F
:1021E00070472DE9F84304460368D3F8B06003F55F
:1021F0008052D2F86051D2F834714FF0B042D2F828
:10220000A880D2F8E89015F0400F02D017F0400FE8
:102210003FD115F0010F02D017F0010F42D115F494
:10222000804F24D017F4804F21D0D4F8883043F069
:102230000803C4F8883015F4805F3ED0236803F5A6
:102240008053D3F8602122F46F6222F00D02D20491
:10225000D20CC4F88C20D3F8342122F44042C3F8C5
:102260003421E023C4F884302046FEF791FB16F4B5
:10227000C04F30D116F0100F42D116F0200F4DD1C3
:1022800001F0F6FA032857D019F4800F61D1BDE8A8
:10229000F88303F5805348F24002C3F86021FEF74B
:1022A00067FBB6E7236803F5805348F20102C3F8E1
:1022B00060212046FEF764FBB1E7236803F58053F5
:1022C000D3F8602102F4CD42C4F88C204FF4CD4203
:1022D000C3F86021C8E7D4F8883043F01003C4F88D
:1022E00088302368D3F8B830C4F89030E023C4F8BD
:1022F00084302046FEF74CFB0023C4F89030B9E749
:102300002368D3F8C03003F06003C4F8943020464B
:10231000FFF764FF0023C4F89430AEE72368D3F8D6
:10232000D03003F00F03C4F898302046FFF757FF72
:102330000023C4F89830A3E718F4800FA7D04FF01B
:10234000B0434FF48002C3F8A8202046FFF748FFAF
:102350009DE74FF0B0434FF48002C3F8E8202046D9
:10236000FFF73EFF93E770B504461D460068D0F8BE
:10237000003213F0010F01D0012070BDD0F80032FF
:1023800023F0787343EA415121F4F81343EA0242FF
:1023900042F00D02C0F8002201F0B0FA06462268B1
:1023A000D2F8001211F0010F07D001F0A7FA821B3A
:1023B000B2F57A7FF3D90120DFE7D2F804329BB27D
:1023C0002B600020D9E7000038B504460068D0F83B
:1023D000005215F0010F01D0012038BDD0F80002E5
:1023E00020F0787040EA415121F4F81141EA0242AC
:1023F00022F00C0242F005029BB20C49C1F80432F3
:10240000C1F8002201F07AFA05462368D3F80032B9
:1024100013F0010F07D001F071FA431BB3F57A7F77
:10242000F3D90120D9E70020D7E700BF00800240A0
:10243000002900F0EE800268126802F00C02CA6205
:1024400002681268C2F3001281F82820026812683C
:1024500002F060024A620268126802F48072B2FA04
:1024600082F2520981F8202002681268C2F34022E9
:10247000CA770268126802F48062B2FA82F25209E4
:102480008A7702681268C2F3C0224A77026812682B
:10249000C2F300320A770268126802F400528A61BD
:1024A0000268126802F480424A6102681268C2F34C
:1024B00000428A740268126802F40032B2FA82F2B0
:1024C00052094A740268126802F40022B2FA82F2D7
:1024D00052090A7402681268C2F30052CA73026891
:1024E0001268C2F340528A7302681268C2F38052C3
:1024F0004A7302681268C2F3C0520A730268126813
:1025000002F0E0628A6002681268C2F3C0620A7177
:102510000268126802F0E0420A6002685268C2F380
:102520000D024A630268526802F48032B2FA82F203
:10253000520981F8322002685268C2F3404281F8A1
:10254000312002685268C2F3804281F8302002686C
:102550005268C2F3006281F8382002685268C2F300
:102560004462CA630268D268C2F3002281F8402044
:102570000268D26802F00F024A640268126FC2F366
:10258000400281F854200268126F02F08002B2FA11
:1025900082F2520981F84C200268126F02F0700238
:1025A0000A650268126F120C8A640268D2F89020E1
:1025B00002F0010281F856200268D2F89020C2F39E
:1025C000400281F855200268D2F8002D02F0720214
:1025D0008A650268D2F8302D02F02302CA650268CB
:1025E000D2F8302DC2F3C00281F862200268D2F81E
:1025F000302DC2F3001281F861200268D2F8302D2C
:1026000002F04002B2FA82F2520981F86020002002
:1026100070470120704751B108B5D0F88430102BB5
:1026200001D0012008BDFFF7B5F80020FAE701202E
:102630007047000038B505460368D3F8004224F41B
:10264000706400F085FE104B984205D844F4007485
:102650002B68C3F8004238BD0C4B984202D244F4B8
:102660004074F5E70A4B9842F2D90A4B984202D8D7
:1026700044F48074ECE7084B984202D844F4806438
:10268000E6E744F4A064E3E7BF0E16020087930375
:10269000FFE0F5057FD1F0087FB2E60E002800F0DC
:1026A000A78030B583B00446D0F884309BB3514B3B
:1026B000D3F8F42042F00202C3F8F420D3F8F43047
:1026C00003F002030193019B237A53BB002001F026
:1026D00021F9494B5B68236803F580531A6842F07F
:1026E00001021A6001F00AF90546236803F58053D8
:1026F0001B6813F0010F19D001F000F9401BB0F571
:10270000FA7FF2D90423C4F88830E023C4F8843077
:10271000012003B030BD2023C0F88430FEF76EF9ED
:10272000C5E74FF4000001F0F5F8D2E72046FFF7C7
:1027300081FF00F00DFE314BA3FB00239B0C2268B0
:10274000013BC2F8DC302046FFF752F9226802F55F
:102750008052D2F8003123F4E01343F40023C2F88E
:102760000031626912F0030F06D00120C4F888001E
:10277000E023C4F88430CCE7216801F58051D1F81A
:1027800008316FF34E0343EA4203C1F80831204693
:10279000FFF79CF92046FFF7C6F9636859791B7962
:1027A000226843EA0123C2F800336268D178937843
:1027B0001B0443EA0163517843EA0123117822683C
:1027C0000B43C2F804332268D2F80C170C4B0B43AE
:1027D000C2F80C372268D2F810170A4B0B43C2F824
:1027E00010370020C4F888001023C4F8843090E724
:1027F00001207047004402580004005883DE1B4348
:102800006000020C00C0200CD0F888007047D0F89F
:102810008C007047002800F0398338B504460368FF
:1028200013F0010F25D0944A136903F03803926A1C
:10283000102B15D0182B0FD06368B3F5803F3FD015
:10284000002B53D18C4B1A6822F480321A601A681C
:1028500022F480221A6038E002F00302022AEBD14F
:10286000854B1B6813F4003F03D06368002B00F016
:102870000F83236813F0020F00F0A1807E4A1369D2
:10288000926A13F038035AD0182B55D0E368002B06
:1028900000F0DE8078490A6822F0190213430B60C9
:1028A00001F02CF80546744B1B6813F0040F40F040
:1028B000AD8001F023F8401B0228F4D90320EEE29A
:1028C0006D4A136843F48033136063682BB301F0DF
:1028D00015F80546684B1B6813F4003FC9D101F099
:1028E0000DF8401B6428F5D90320D8E2B3F5A02FDA
:1028F00009D0614B1A6822F480321A601A6822F4F7
:1029000080221A60E1E75C4B1A6842F480221A6068
:102910001A6842F480321A60D7E700F0EFFF0546EC
:10292000554B1B6813F4003FA3D000F0E7FF401B9A
:102930006428F5D90320B2E212F0030FA6D14E4B62
:102940001B6813F0040F03D0E368002B00F0A28291
:10295000494A136823F01903E1680B43136000F040
:10296000CDFF0546444B1B6813F0040F06D100F061
:10297000C5FF401B0228F5D9032090E200F0C4FFF8
:1029800041F20303984212D82269402A07D03A49FB
:102990004B6823F47C3343EA02334B600FE0364A42
:1029A000536823F47C3343F40033536007E0324A26
:1029B000536823F0FE43216943EA016353602368AF
:1029C00013F0100F00F088802B4A136903F03803CE
:1029D000926A082B56D0182B50D0E369002B00F0D8
:1029E000B880254A136843F08003136000F086FF27
:1029F0000546214B1B6813F4807F40F0888000F06F
:102A00007DFF401B0228F4D9032048E200F07CFF40
:102A100041F20303984212D82269402A07D016498E
:102A20004B6823F47C3343EA02334B60C7E7124A16
:102A3000536823F47C3343F400335360BFE70E4AFA
:102A4000536823F0FE43216943EA01635360B6E70C
:102A5000094A136823F00103136000F04FFF054695
:102A6000054B1B6813F0040FA9D000F047FF401B73
:102A70000228F5D9032012E20044025802F00302B2
:102A8000012AAAD1A14B1B6813F4807F03D0E3690C
:102A9000802B40F0018200F037FF41F2030398429F
:102AA00012D8226A202A07D098494B6823F0F843AD
:102AB00043EA82634B600FE0944A536823F0F84383
:102AC00043F08043536007E0904AD36823F07C537F
:102AD000216A43EA0163D360236813F0080F60D0D2
:102AE0006369002B49D0894A536F43F00103536750
:102AF00000F004FF0546854B5B6F13F0020F50D1C9
:102B000000F0FCFE401B0228F5D90320C7E100F0CD
:102B1000FBFE41F20303984212D8226A202A07D012
:102B20007A494B6823F0F84343EA82634B60D3E76A
:102B3000764A536823F0F84343F080435360CBE771
:102B4000724AD36823F07C53216A43EA0163D3605D
:102B5000C2E76E4A136823F08003136000F0CEFED4
:102B600005466A4B1B6813F4807FB5D000F0C6FEA3
:102B7000401B0228F5D9032091E1644A536F23F0EA
:102B80000103536700F0BAFE0546604B5B6F13F01C
:102B9000020F06D000F0B2FE401B0228F5D9032038
:102BA0007DE1236813F0200F29D0A3699BB1574A18
:102BB000136843F48053136000F0A0FE0546534BA6
:102BC0001B6813F4005F1AD100F098FE401B022826
:102BD000F5D9032063E14D4A136823F48053136051
:102BE00000F08CFE0546494B1B6813F4005F06D0CD
:102BF00000F084FE401B0228F5D903204FE1236832
:102C000013F0040F21D1636A002B00F047813F4A83
:102C1000126902F03802182A00F0EE80022B79D0F7
:102C20003A4A136823F08073136000F067FE04468D
:102C3000364B1B6813F0007F00F0DC8000F05EFE76
:102C4000001B0228F4D9032029E1314A136843F418
:102C50008073136000F052FE05462D4B1B6813F481
:102C6000807F06D100F04AFE401B6428F5D903207E
:102C700015E1A368012B0AD00BBB244B1A6F22F07D
:102C800001021A671A6F22F004021A6704E01F4A51
:102C9000136F43F001031367A36833B300F02EFEF4
:102CA00005461A4B1B6F13F0020FACD100F026FE45
:102CB000401B41F288339842F3D90320EFE0052B03
:102CC00009D0124B1A6F22F001021A671A6F22F014
:102CD00004021A67E0E70D4B1A6F42F004021A670C
:102CE0001A6F42F001021A67D6E700F007FE0546A8
:102CF000064B1B6F13F0020F85D000F0FFFD401B49
:102D000041F288339842F3D90320C8E000440258C6
:102D100000480258694A136823F08073136000F07A
:102D2000EDFD0546654B1B6813F0007F06D000F0F3
:102D3000E5FD401B0228F5D90320B0E05F4B996AFE
:102D40005F4A0A40A16AE06A41EA00110A439A62B6
:102D5000226B013AC2F30802616B0139490289B260
:102D60000A43A16B0139090401F4FE010A43E16B36
:102D70000139090601F0FE410A431A63DA6A22F0BA
:102D80000102DA625A6B6FF3CF02A16C42EAC10210
:102D90005A63DA6A22F00C02216C0A43DA62DA6AB8
:102DA00022F00202616C0A43DA62DA6A42F480328B
:102DB000DA62DA6A42F40032DA62DA6A42F48022D3
:102DC000DA62DA6A42F00102DA621A6842F080726C
:102DD0001A6000F093FD0446384B1B6813F0007F27
:102DE00006D100F08BFD001B0228F5D9032056E028
:102DF000002054E0002052E0304A916A106B012B11
:102E00004ED001F00303A26A93424BD1C1F30511E6
:102E1000E36A994248D1C0F30802236B013B9A420E
:102E200044D1C0F34622636B013B9A4240D1C0F3C8
:102E30000642A36B013B9A423CD1C0F30660E36BB0
:102E4000013B984238D11D4B5B6BC3F3CC03A26CA2
:102E50009A4201D1002022E0184AD36A23F00103EC
:102E6000D36200F04BFD054600F048FDA842FBD0C0
:102E7000124A536B6FF3CF03A16C43EAC103536350
:102E8000D36A43F00103D362002008E001207047B9
:102E9000012004E0012002E0012000E0002038BD14
:102EA0000120FCE70120FAE70120F8E70120F6E71E
:102EB0000120F4E70120F2E70120F0E70044025886
:102EC0000CFCFFFF754B1B6903F03803102B00F05F
:102ED000DE80182B0FD0002B40F0DB806F4B1B687F
:102EE00013F0200F00F0D7806C4B1B68C3F3C103B5
:102EF0006B48D840704710B4684B9A6A02F00302DE
:102F00009C6AC4F30510D96A01F001015B6BC3F33D
:102F1000CC0301FB03F307EE903AF8EE677A14F462
:102F20007C7F77D0012A4AD0022A76D0002A40F04E
:102F300091805A4B1B6813F0200F23D057490A6821
:102F4000C2F3C102564BD34007EE103AF8EE476A7F
:102F500007EE100AB8EE476A86EE867A0B6BC3F36B
:102F6000080306EE903AF8EE666A9FED4E6A67EE49
:102F7000867A76EEA77AF7EE006A77EEA67A27EEE3
:102F8000277A38E007EE100AF8EE476A9FED466AA6
:102F900086EE267A414B1B6BC3F3080306EE903A8C
:102FA000F8EE666A9FED3F6A67EE867A76EEA77A5C
:102FB000F7EE006A77EEA67A27EE277A1BE007EE97
:102FC000100AF8EE476A9FED396A86EE267A334B8F
:102FD0001B6BC3F3080306EE903AF8EE666A9FEDAA
:102FE000316A67EE867A76EEA77AF7EE006A77EEB8
:102FF000A67A27EE277A294B1B6BC3F346230133AE
:1030000007EE903AF8EE677AC7EE276AFCEEE67AAA
:1030100017EE900A5DF8044B704707EE100AF8EEC1
:10302000476A9FED236A86EE267A1C4B1B6BC3F31F
:10303000080306EE903AF8EE666A9FED1A6A67EEAC
:10304000867A76EEA77AF7EE006A77EEA67A27EE12
:10305000277AD0E707EE100AF8EE476A9FED136A69
:1030600086EE267A0D4B1B6BC3F3080306EE903AEF
:10307000F8EE666A9FED0B6A67EE867A76EEA77ABF
:10308000F7EE006A77EEA67A27EE277AB3E70948CB
:103090007047094870470248704700BF0044025813
:1030A0000090D003000000390024744C0024744ABE
:1030B00020BCBE4B40787D0100093D00002800F097
:1030C000328170B50D4604469B4B1B6803F00F031D
:1030D0008B420BD2984A136823F00F030B43136003
:1030E000136803F00F038B4240F01F81236813F035
:1030F000040F0CD02269914B9B6903F070039A4234
:1031000005D98E498B6923F070031A438A612368BD
:1031100013F0080F0CD06269884BDB6903F0700371
:103120009A4205D98549CB6923F070031A43CA61D5
:10313000236813F0100F0CD0A269804BDB6903F4F5
:10314000E0639A4205D97D49CB6923F4E0631A43D1
:10315000CA61236813F0200F0CD0E269774B1B6A19
:1031600003F070039A4205D974490B6A23F0700387
:103170001A430A62236813F0020F0CD0E2686F4B07
:103180009B6903F00F039A4205D96C498B6923F0C0
:103190000F031A438A61236813F0010F41D0674A75
:1031A000936923F47063A1680B4393616368022BF6
:1031B0000AD0032B27D0012B2CD0604A126812F0C2
:1031C000040F06D10120ADE0126812F4003F00F0B8
:1031D000AE805A490A6922F0070213430B6100F0DE
:1031E0008DFB0646554B1B6903F038036268B3EB51
:1031F000C20F16D000F082FB801B41F28833984248
:10320000F0D903208EE04D4A126812F0007FE0D121
:10321000012087E0494A126812F4807FD9D1012049
:1032200080E0236813F0020F0CD0E268434B9B69E7
:1032300003F00F039A4205D240498B6923F00F0334
:103240001A438A613C4B1B6803F00F03AB420AD957
:10325000394A136823F00F032B431360136803F0FC
:103260000F03AB4265D1236813F0040F0CD0226921
:10327000324B9B6903F070039A4205D22F498B6948
:1032800023F070031A438A61236813F0080F0CD0EF
:1032900062692A4BDB6903F070039A4205D2274921
:1032A000CB6923F070031A43CA61236813F0100F2F
:1032B0000CD0A269214BDB6903F4E0639A4205D28A
:1032C0001E49CB6923F4E0631A43CA61236813F0F3
:1032D000200F0CD0E269194B1B6A03F070039A426D
:1032E00005D216490B6A23F070031A430A62FFF7EE
:1032F000E9FD12498B69C3F30323114AD35C03F040
:103300001F03D8408B6903F00F03D35C03F01F0346
:1033100020FA03F30B4A13600B4B18600B4B186831
:10332000FDF70CFF70BD012070470120FAE7012076
:10333000F8E70120F6E700BF0020005200440258E1
:10334000687A01081C0000202000002018000020DE
:1033500008B5FFF7B7FD0B4A9369C3F303230A4986
:10336000CB5C03F01F0320FA03F3926902F00F0213
:10337000885C00F01F0023FA00F0044A1060044A41
:10338000136008BD00440258687A01081C00002040
:103390002000002008B5FFF7DBFF054BDB69C3F316
:1033A0000223044AD35C03F01F03D84008BD00BFCA
:1033B00000440258687A01083F230360114B1A69E0
:1033C00002F0070242609A6902F4706282609A69B0
:1033D00002F00F02C2609A6902F070020261DA69BB
:1033E00002F070024261DA6902F4E06282611B6AF3
:1033F00003F07003C361044B1B6803F00F030B6001
:10340000704700BF0044025800200052F0B583B05E
:1034100000236BE085685E000324B44025EA0405C0
:10342000CC68B4402C438460456825EA0C054C68A0
:10343000C4F300149C402C43446069E0DD08083567
:1034400050F8254003F0070C4FEA8C0C4FF00F0E9C
:103450000EFA0CFE24EA0E0E0C6904FA0CF444EA8F
:103460000E0440F825406BE0092400E0002404FA33
:103470000EF42C430CF1020C694D45F82C404FF032
:10348000B0442568D44325EA02064F6817F4801F2C
:1034900001D042EA05064FF0B0452E606D6804EA9F
:1034A00005064F6817F4001F01D042EA05064FF0E9
:1034B000B0456E60D5F8845004EA05064F6817F4ED
:1034C000003F01D042EA05064FF0B045C5F88460E0
:1034D000D5F880502C404E6816F4803F01D042EA67
:1034E00005044FF0B042C2F8804001330A6832FA56
:1034F00003F400F092804FF0010C0CFA03FC1CEA7C
:103500000202F2D04C6804F00304013C012C81D982
:103510004C6804F00304032C0CD0C4685D004FF029
:10352000030C0CFA05FC24EA0C0C8C68AC4044EA51
:103530000C04C4604C6804F00304022C3FF47EAF1A
:1035400004684FEA430E4FF0030C0CFA0EFC24EA19
:103550000C0C4C6804F0030404FA0EF444EA0C0466
:1035600004604C6814F4403FBFD02E4CD4F8F450A3
:1035700045F00205C4F8F450D4F8F44004F0020415
:103580000194019C4FEA930C0CF10205244C54F871
:10359000255003F0030E4FEA8E0E0F2404FA0EF4AA
:1035A00025EA0405204CA0423FF460AF04F5806496
:1035B000A04222D004F58064A04220D004F58064AB
:1035C000A0421ED004F58064A0421CD004F58064A3
:1035D000A0421AD004F58064A04218D004F580649B
:1035E000A04216D004F58064A04214D004F5806493
:1035F000A0423FF439AF0A2439E7012437E7022417
:1036000035E7032433E7042431E705242FE70624B4
:103610002DE707242BE7082429E703B0F0BD00BFFE
:103620000004005800440258000002580AB18161A9
:103630007047090481617047436901EA030221EA86
:10364000030141EA02418161704700002030054BCF
:1036500053F82020044B9A4201D0012070470020EB
:10366000704700BF006402580003008041F44071BD
:10367000014B43F8201070470064025838B50446E7
:10368000224BDB6803F00703062B07D01F4BDB68D8
:1036900003F03F03834236D0012038BD1B4AD36874
:1036A00023F03F030343D36000F028F90546174B8E
:1036B0005B6813F4005F07D100F020F9431BB3F5FA
:1036C0007A7FF4D90120E8E72E2C18BF1E2C08D0F1
:1036D0002D2C14BF002301231D2C02D00BB9002078
:1036E000DBE700F00BF90446084BDB6813F4803F7E
:1036F00007D100F003F9001BB0F57A7FF4D901205F
:10370000CBE70020C9E70020C7E700BF0048025808
:10371000002807DB00F01F02400901239340024A02
:1037200042F82030704700BF00E100E0002804DBD1
:103730000901C9B2044B1954704700F00F00090188
:10374000C9B2024B1954704700E400E014ED00E0E8
:1037500000B500F00700C0F1070CBCF1040F28BF52
:103760004FF0040C031D062B0FD9C31E4FF0FF3E74
:103770000EFA0CF021EA000199400EFA03FE22EA4B
:103780000E0241EA02005DF804FB0023EEE70000B0
:103790000649CB6823F4E0631B041B0C000200F411
:1037A000E0600343024A1A43CA60704700ED00E03C
:1037B0000000FA0510B50446054BD868C0F3022096
:1037C000FFF7C6FF01462046FFF7B0FF10BD00BF60
:1037D00000ED00E008B5FFF79BFF08BDBFF35F8F6A
:1037E000044B5A6A22F480325A620022C3F89420B1
:1037F000704700BF00ED00E040F00100054BC3F84A
:1038000094005A6A42F480325A62BFF34F8FBFF37A
:103810006F8F704700ED00E04378144AC2F898308B
:10382000D2F8A03023F00103C2F8A0304368C2F8F8
:103830009C30017BC37A1B0643EA0173817A43EA19
:10384000C143417B43EA8143817B43EA4143C17BDE
:1038500043EA0143417A43EA0123017A43EA4103FF
:1038600001780B43C2F8A030704700BF00ED00E0C4
:10387000044B1B6803F0F003702B01D0012070474C
:103880000320704700ED00E010B50320FFF780FF34
:10389000FFF718FB0F498B69C3F303230E4AD35C70
:1038A00003F01F03D8408B6903F00F03D35C03F0D0
:1038B0001F0320FA03F3094A1360094B18600F2015
:1038C000FDF73CFC10B10124204610BD0446FDF775
:1038D0001BFCF9E700440258687A01081C0000202C
:1038E00020000020034B1B78034A11680B4413602F
:1038F000704700BF140000200C4E0020014B1868D8
:10390000704700BF0C4E0020014B1868000C704738
:103910000010005C034A536823F4600303435360C0
:10392000704700BF0004005870B504460368C3F335
:10393000014503F01F0301269E40FFF799FF03286E
:103940000AD0074B03EB05131A68324203D01E60FE
:10395000636803B1984770BD024B03EB0513F3E7AF
:10396000C800005888000058026852E8003F23F45D
:10397000907342E800310029F6D1026802F1080391
:1039800053E8001F0D4B0B40083242E8003100297C
:10399000F3D1C36E012B06D02023C0F88C30002356
:1039A000C36643677047026852E8003F23F0100384
:1039B00042E800310029F6D1EEE700BFFEFFFFEF3D
:1039C0002DE9F84305460E4617469946DDF8208056
:1039D0002B68DC6936EA04040CBF01240024BC42D5
:1039E0003AD1B8F1FF3FF3D0FFF788FFA0EB090011
:1039F000404534D8B8F1000F33D02B681A6812F064
:103A0000040FE5D0B6F1400218BF0122802EDFD0AE
:103A1000002ADDD0DA6912F0080F11D1DA6912F448
:103A2000006FD5D04FF400621A622846FFF79CFF62
:103A30002023C5F89030002385F8843003200CE063
:103A400008241C622846FFF78FFFC5F8904000232A
:103A500085F88430012000E00020BDE8F8830320D1
:103A6000FBE70320F9E72DE9F04182B01E46D0F8CC
:103A70008830202B5BD104460D469046002A18BFA3
:103A8000002901D1012053E00023C0F89030212308
:103A9000C0F88830FFF732FF0746A4F85480A4F836
:103AA0005680A368B3F5805F02D04FF0000816E09F
:103AB000236943B34FF0000811E02023C4F8883095
:103AC000032035E038F8023B2268C3F30803936211
:103AD000B4F8562092B2013A92B2A4F85620B4F843
:103AE00056309BB293B100963B460022802120467F
:103AF000FFF766FF0028E0D1002DE3D015F8012B79
:103B000023689A62E4E7A8460025E8E700963B466A
:103B1000002240212046FFF753FF18B92023C4F8A4
:103B2000883005E02023C4F88830032000E002201C
:103B300002B0BDE8F0810000374BD3F8882042F492
:103B40007002C3F888201A6942F010021A61334BE0
:103B50001B6803F00F03062B06D8304A136823F0C6
:103B60000F0343F0070313602D4B1A6842F0010264
:103B70001A6000221A6119682A4A0A401A60274B03
:103B80001B6813F0080F06D0244A136823F00F03B4
:103B900043F007031360224B00229A61DA611A6234
:103BA000214999622149D962214919635A6399636C
:103BB000DA6319645A64196821F4802119601A665D
:103BC0004FF0B042D2F8E43043F48043C2F8E4301E
:103BD000184B1B686FF30F03B3F1005F03D2164B52
:103BE0000122C3F808210E4BD3F8D43013F4805FC0
:103BF00010D10B4BD3F8D42042F48052C3F8D42018
:103C00000E4A43F2D2011160D3F8D42022F480523C
:103C1000C3F8D420704700BF00ED00E00020005240
:103C2000004402587FEDF6EA000202020000FF01A4
:103C3000800201010010005C008000510040005231
:103C4000054AD36823F00203D360034B5B6813F487
:103C5000005FFAD0704700BF0048025800F1080327
:103C600043604FF0FF328260C36003610023036052
:103C7000704700230361704743684B609A688A600D
:103C8000516099600861036801330360704730B484
:103C90000D68B5F1FF3F11D000F108031C465B68C9
:103CA0001A68AA42FAD963684B6099608C606160B7
:103CB000086103680133036030BC70470469F2E7B0
:103CC0000369416882688A60416851605A6882422B
:103CD00006D0002202611A68013A1A60186870471B
:103CE00082685A60F5E70346406A18B11B6B186892
:103CF000C0F13800704710B5044602F083FAA26B99
:103D0000E36B9A4204D0002402F09EFA204610BDD4
:103D10000124F9E710B5044602F074FAA36B23B945
:103D2000012402F091FA204610BD0024F9E770B595
:103D300004461546866B026C5AB903681BB1002015
:103D40000136A66370BD806801F0D2FA0023A3603B
:103D5000F6E76DB9406807F00CFF6368226C134406
:103D60006360A268934219D3236863602846E7E73B
:103D7000C06807F0FEFEE368226C51429B1AE360C4
:103D80002268934202D2A3680B44E360022D01D063
:103D90000020D5E726B1013E0020D1E72846CFE735
:103DA0000020CDE70346026C6AB110B50846D96819
:103DB0001144D9609C68A14201D31968D960D968BF
:103DC00007F0D7FE10BD704738B5054602F01AFA65
:103DD00095F8454064B201E0013C64B2002C0ADD74
:103DE0006B6A43B105F1240001F084F90028F3D097
:103DF00001F016FAF0E7FF2385F8453002F024FAC7
:103E000002F000FA95F8444064B201E0013C64B26B
:103E1000002C0ADD2B6943B105F1100001F06AF9AD
:103E20000028F3D001F0FCF9F0E7FF2385F84430D7
:103E300002F00AFA38BD38B5E0B10D46044602F08A
:103E4000E1F92368E26B216C01FB0230A0600020E5
:103E5000A0636360013A02FB0133E360FF2384F84F
:103E6000443084F84530FDB9236963B902F0ECF9B8
:103E7000012038BD4FF0500383F31188BFF36F8FDB
:103E8000BFF34F8FFEE704F1100001F033F9002873
:103E9000ECD04FF0E0234FF08052C3F8042DBFF375
:103EA0004F8FBFF36F8FE1E704F11000FFF7D6FEED
:103EB00004F12400FFF7D2FED8E738B51D46049C74
:103EC0000B4649B92460E063236401212046FFF7D3
:103ED000B2FF84F84C5038BD2260F4E740B94FF08F
:103EE000500383F31188BFF36F8FBFF34F8FFEE74B
:103EF00010B584B01C4683B10B1E18BF0123002AE5
:103F000008BF43F001038BB94FF0500383F31188CE
:103F1000BFF36F8FBFF34F8FFEE74FF0500383F374
:103F20001188BFF36F8FBFF34F8FFEE7B1FA81F3B4
:103F30005B09002A18BF43F0010343B94FF0500357
:103F400083F31188BFF36F8FBFF34F8FFEE75023CA
:103F50000393039B502B08D04FF0500383F3118839
:103F6000BFF36F8FBFF34F8FFEE7039B012384F8EE
:103F7000463000949DF81830FFF79FFF204604B0AC
:103F800010BD40B94FF0500383F31188BFF36F8F1A
:103F9000BFF34F8FFEE7F0B583B00D4614460646DB
:103FA00001FB00F0503002F005F8074650B1002345
:103FB00080F846300090234600F1500229463046F2
:103FC000FFF77BFF384603B0F0BD40B94FF0500318
:103FD00083F31188BFF36F8FBFF34F8FFEE710B5E8
:103FE00082B00C46884208D24FF0500383F3118808
:103FF000BFF36F8FBFF34F8FFEE70223009313468B
:1040000000221146FFF76AFF00B1846302B010BDC1
:1040100040B94FF0500383F31188BFF36F8FBFF3A4
:104020004F8FFEE710B50C46884208D24FF0500380
:1040300083F31188BFF36F8FBFF34F8FFEE7022228
:104040000021FFF79EFF00B1846310BDF0B585B07D
:10405000019288B10F461D460446B1B1022D20D110
:10406000E36B012B1DD04FF0500383F31188BFF396
:104070006F8FBFF34F8FFEE74FF0500383F311882C
:10408000BFF36F8FBFF34F8FFEE7036C002BE5D0BC
:104090004FF0500383F31188BFF36F8FBFF34F8F3F
:1040A000FEE701F0C9F8064658B9019B002B48D03D
:1040B0004FF0500383F31188BFF36F8FBFF34F8F1F
:1040C000FEE700263DE02A4639462046FFF72FFE50
:1040D000636A7BB948B14FF0E0234FF08052C3F8D8
:1040E000042DBFF34F8FBFF36F8F02F0ADF80120A7
:1040F00005B0F0BD04F1240000F0FCFF0028F4D06E
:104100004FF0E0234FF08052C3F8042DBFF34F8FE0
:10411000BFF36F8FE9E702F097F80020E8E702A805
:1041200001F02EF8012619E0002384F8443021E044
:10413000002384F8453023E02046FFF745FE00F0D9
:10414000B7FE02F05FF8A26BE36B9A42BBD3022D7D
:10415000B9D0019B002BDED0002EE0D002F074F825
:1041600000F004FE02F04EF894F8442052B2B2F18E
:10417000FF3FD9D094F8452052B2B2F1FF3FD7D0DB
:1041800002F062F801A902A801F006F8D8B92046A9
:10419000FFF7B1FD0028CFD0019904F1100000F025
:1041A00075FF2046FFF710FE00F082FE0028C8D100
:1041B0004FF0E0234FF08052C3F8042DBFF34F8F30
:1041C000BFF36F8FBDE72046FFF7FEFD00F070FEE6
:1041D00000208DE748B108B5002181600160C16011
:1041E0000B460A46FFF732FF08BD704710B502467E
:1041F00000210120FFF7C5FE0446FFF7EBFF204634
:1042000010BD10B582B00B4600900022114601206F
:10421000FFF764FE0446FFF7DDFF204602B010BD45
:1042200038B538B10446856801F000F885420AD0F7
:10423000002038BD4FF0500383F31188BFF36F8F18
:10424000BFF34F8FFEE7E368013BE3600BB1012052
:10425000EFE71A4619462046FFF7F8FE0120E8E787
:104260002DE9F84390B10F4616461C460546B1B1FC
:10427000022C20D1EB6B012B1DD04FF0500383F3A8
:104280001188BFF36F8FBFF34F8FFEE74FF05003DE
:1042900083F31188BFF36F8FBFF34F8FFEE7036C7B
:1042A000002BE5D04FF0500383F31188BFF36F8FDD
:1042B000BFF34F8FFEE702F0CBF8EFF311884FF01A
:1042C000500383F31188BFF36F8FBFF34F8FAA6B37
:1042D000EB6B9A4206D3022C04D0002088F311889D
:1042E000BDE8F88395F845904FFA89F9AB6B224603
:1042F00039462846FFF71BFDB9F1FF3F06D009F10B
:1043000001035BB285F845300120E7E76B6A0BB922
:104310000120E3E705F1240000F0ECFE18B126B11E
:1043200001203060DAE70120D8E70120D6E768B144
:1043300070B50C460546036C8BB14FF0500383F308
:104340001188BFF36F8FBFF34F8FFEE74FF050031D
:1043500083F31188BFF36F8FBFF34F8FFEE70368BE
:10436000EBB102F075F8EFF311864FF0500383F3D1
:104370001188BFF36F8FBFF34F8FAA6BEB6B934224
:1043800026D995F845305BB20132AA63B3F1FF3FFD
:1043900011D001335BB285F84530012019E0836804
:1043A000002BDED04FF0500383F31188BFF36F8FE3
:1043B000BFF34F8FFEE76B6A0BB9012009E005F1EF
:1043C000240000F097FE38B144B10120206000E0E5
:1043D000002086F3118870BD0120FAE70120F8E77C
:1043E000F0B585B0019290B10F460446C1B100F01E
:1043F00023FF064600BB019B002B5ED04FF050030D
:1044000083F31188BFF36F8FBFF34F8FFEE74FF039
:10441000500383F31188BFF36F8FBFF34F8FFEE715
:10442000036C002BE3D04FF0500383F31188BFF3EC
:104430006F8FBFF34F8FFEE700263EE039462046E0
:10444000FFF7B0FC013DA563236923B901F0FCFE31
:10445000012005B0F0BD04F1100000F04BFE002873
:10446000F4D04FF0E0234FF08052C3F8042DBFF397
:104470004F8FBFF36F8FE9E701F0E6FE0020E8E71A
:1044800002A800F07DFE012621E0002384F84430DC
:1044900029E0002384F845302BE02046FFF794FC08
:1044A00000F006FD09E02046FFF78EFC00F000FD5D
:1044B0002046FFF72FFC00283FD101F0A3FEA56B9B
:1044C000002DBBD1019B002BD6D0002ED8D001F0FF
:1044D000BBFE00F04BFC01F095FE94F844305BB25B
:1044E000B3F1FF3FD1D094F845305BB2B3F1FF3F59
:1044F000CFD001F0A9FE01A902A800F04DFE0028CE
:10450000D1D12046FFF706FC0028C6D0019904F15E
:10451000240000F0BBFD2046FFF756FC00F0C8FC6D
:104520000028CAD14FF0E0234FF08052C3F8042D89
:10453000BFF34F8FBFF36F8FBFE7002089E770B5E0
:1045400084B0019158B10446036C8BB14FF0500315
:1045500083F31188BFF36F8FBFF34F8FFEE74FF0E8
:10456000500383F31188BFF36F8FBFF34F8FFEE7C4
:1045700000F062FE054650B9019B5BB14FF050035D
:1045800083F31188BFF36F8FBFF34F8FFEE70026D1
:10459000354655E0064653E0013BA36323683BB133
:1045A00023694BB901F050FE0126304604B070BDBE
:1045B00000F036FFA060F3E704F1100000F09AFD70
:1045C0000028EFD04FF0E0234FF08052C3F8042DC5
:1045D000BFF34F8FBFF36F8FE4E746B14FF0500347
:1045E00083F31188BFF36F8FBFF34F8FFEE701F0A6
:1045F0002BFEDAE702A800F0C3FD01252AE0002324
:1046000084F8443032E0002384F8453034E001F08F
:10461000F9FDA06800F020FE064601F015FE3BE023
:104620002046FFF7D1FB00F043FC09E02046FFF7EE
:10463000CBFB00F03DFC2046FFF76CFB002842D18D
:1046400001F0E0FDA36B002BA6D1019B002BC4D091
:10465000002DCFD001F0F8FD00F088FB01F0D2FD75
:1046600094F844305BB2B3F1FF3FC8D094F84530C2
:104670005BB2B3F1FF3FC6D001F0E6FD01A902A88D
:1046800000F08AFD0028D1D12046FFF743FB002827
:10469000C6D02368002BBAD0019904F1240000F0A1
:1046A000F5FC2046FFF790FB00F002FC0028C7D184
:1046B0004FF0E0234FF08052C3F8042DBFF34F8F2B
:1046C000BFF36F8FBCE70EB900266EE701F09AFDCD
:1046D0002046FFF708FB0146A06800F051FE01F0FC
:1046E000B3FDF1E780B170B50C460546866800F071
:1046F0009DFD864211D021462846FFF720FF80B15C
:10470000EB680133EB600CE04FF0500383F311884A
:10471000BFF36F8FBFF34F8FFEE7EB680133EB60A2
:10472000012070BD2DE9F843B0B10D469046044616
:10473000D9B101F08DFEEFF311874FF0500383F3F1
:104740001188BFF36F8FBFF34F8FA66BCEB90020D8
:1047500087F31188BDE8F8834FF0500383F3118885
:10476000BFF36F8FBFF34F8FFEE7036C002BE0D0DA
:104770004FF0500383F31188BFF36F8FBFF34F8F58
:10478000FEE794F844904FFA89F929462046FFF74E
:1047900009FB731EA363B9F1FF3F06D009F10103C2
:1047A0005BB284F844300120D2E723690BB90120C1
:1047B000CEE704F1100000F09DFC30B1B8F1000F1D
:1047C00005D00120C8F80000C2E70120C0E70120A1
:1047D000BEE740B110B5044601F014FDA46B01F032
:1047E00033FD204610BD4FF0500383F31188BFF313
:1047F0006F8FBFF34F8FFEE708B1806B70474FF0AC
:10480000500383F31188BFF36F8FBFF34F8FFEE721
:104810000023072B0CD8074A52F833200AB1013382
:10482000F7E7044A42F8331002EBC30250607047C6
:10483000704700BF104E00200023072B0FD8084AF6
:1048400002EBC3025268824201D00133F5E7044A09
:10485000002142F8331002EBC302516070477047E9
:10486000104E002038B110B50446FFF7E5FF94F86C
:1048700046304BB110BD4FF0500383F31188BFF3A6
:104880006F8FBFF34F8FFEE7204601F015FCF1E775
:1048900070B504460D46164601F0B4FC94F8443059
:1048A0005BB2B3F1FF3F0DD094F845305BB2B3F18A
:1048B000FF3F0BD001F0C8FCA36B5BB12046FFF7B4
:1048C00083FA70BD002384F84430EDE7002384F8B8
:1048D0004530EFE73246294604F1240000F0EEFBB4
:1048E000ECE70000084B1B681B6823B9074B4FF02F
:1048F000FF321A607047044B1B68DB68DB685A683C
:10490000024B1A60704700BFC04E0020584E002076
:104910002DE9F04780460D4617469946089EDDF87A
:1049200024A00A9C9200A521206B07F0DAF8236BE3
:104930006FF040423A4403EB820727F00707A5B324
:104940004FF0000CBCF10F0F09D815F80C3004EB38
:104950000C0282F8343013B10CF1010CF2E70023A1
:1049600084F84330372E00D93726E662E664002506
:104970002565201DFFF77DF904F11800FFF779F98F
:104980002461C6F13806A6616462656584F85850F2
:104990004A464146384601F00BFC2060BAF1000F50
:1049A00001D0CAF80040BDE8F087002384F8343015
:1049B000D8E7000038B5002407E004EB8402930038
:1049C0000E481844FFF74AF90134372CF5D90C4D3D
:1049D0002846FFF743F90B4C2046FFF73FF90A48FA
:1049E000FFF73CF90948FFF739F90948FFF736F9AD
:1049F000084B1D60084B1C6038BD00BFEC4E00200A
:104A0000D84E0020C44E0020A84E0020944E002016
:104A10007C4E0020C04E0020BC4E002010B5044645
:104A200001F0F0FB224A136801331360214B1B682D
:104A30005BB1214B1B686BB91E4B1B68DA6AE36ADA
:104A40009A4207D81B4B1C6004E01A4B1C60136889
:104A5000012B29D0194A1368013313606364E06A9B
:104A6000174B1B68984201D9154B186000EB80006A
:104A7000211D144B03EB8000FFF7FEF801F0E4FB6F
:104A80000D4B1B687BB10B4B1B68DA6AE36A9A42D9
:104A900009D24FF0E0234FF08052C3F8042DBFF34A
:104AA0004F8FBFF36F8F10BDFFF784FFD2E700BFBA
:104AB000784E00204C5300206C4E00205C4E0020AD
:104AC000704E0020EC4E002010B5044690F859308E
:104AD00063B1012B11D0022B0ED04FF0500383F3A2
:104AE0001188BFF36F8FBFF34F8FFEE7006B01F0AC
:104AF000E3FA204601F0E0FA10BD01F0DDFAFBE731
:104B00000F4B1B68D3B110B501F07CFB0D4BDB687C
:104B1000DC68201DFFF7D4F80B4A1368013B1360D3
:104B2000074A1368013B136001F08EFB2046FFF734
:104B3000CBFF034B1B68002BE6D110BD704700BFB5
:104B4000904E0020944E0020784E002008B5FFF7CC
:104B5000D7FF074B1B68012BF9D94FF0E0234FF02B
:104B60008052C3F8042DBFF34F8FBFF36F8FEEE772
:104B7000EC4E002070B504460D46194B1E68194BCB
:104B800018680430FFF79CF8B4F1FF3F14BF00230E
:104B90000123002D08BF00236BB93444114B1B685F
:104BA0005C60A6420ED9104B18680E4B1968043190
:104BB000FFF76DF870BD0B4B196804310B48FFF718
:104BC0005BF8F7E70A4B1868064B19680431FFF7E2
:104BD0005EF8084B1B68A342ECD9064B1C60E9E762
:104BE000744E00204C530020BC4E00207C4E002010
:104BF000C04E0020584E002030B587B00B9C7CB1D1
:104C00000C9DB5B15C250495049D5C2D1AD04FF028
:104C1000500383F31188BFF36F8FBFF34F8FFEE70D
:104C20004FF0500383F31188BFF36F8FBFF34F8FA3
:104C3000FEE74FF0500383F31188BFF36F8FBFF38C
:104C40004F8FFEE7049D0C9D2C63022485F859408C
:104C500000240394029505AC01940A9C0094FFF78C
:104C600057FE0C98FFF7DAFE059807B030BD2DE926
:104C7000F04385B00746884614461E46900001F072
:104C800099F908B381465C2001F094F90546A8B172
:104C9000C0F83090002380F85930039302900D9BA8
:104CA00001930C9B00933346224641463846FFF75A
:104CB0002FFE2846FFF7B2FE012007E0484601F02C
:104CC000FBF94FF0FF3001E04FF0FF3005B0BDE8D9
:104CD000F083000010B588B000240594069407AA5C
:104CE00006A905A801F0EAF8059B0293069B01932B
:104CF00000942346079A17491748FFF77DFF174B83
:104D00001860C0B100F00AFC012815D14FF0500323
:104D100083F31188BFF36F8FBFF34F8F104B4FF0AA
:104D2000FF321A600F4B01221A600F4B00221A60EB
:104D300001F002FB03E00020B0F1FF3F01D008B01A
:104D400010BD4FF0500383F31188BFF36F8FBFF393
:104D50004F8FFEE73C5D01084D4B0008544E00208C
:104D6000584E00206C4E0020744E0020024A1368FA
:104D700001331360704700BF504E0020014B18688C
:104D8000704700BF744E002008B501F061FB014B75
:104D9000186808BD744E0020F8B53A4B1B68002B0C
:104DA00069D1394B1D6801351D60C5B9374B1B688A
:104DB0001B6843B14FF0500383F31188BFF36F8F2B
:104DC000BFF34F8FFEE7314A1168314B186810600E
:104DD0001960304A136801331360FFF783FD2E4BCF
:104DE0001B68AB423DD900272C4B1B68DB6A03EBE9
:104DF00083039A002A4B9B58012B00D90127294B8A
:104E00001B68002B3CD001273AE001271F4B1B6891
:104E10001B6843B31D4B1B68DB68DC6863689D42FD
:104E200026D3261D3046FEF74BFFA36A1BB104F1C3
:104E30001800FEF745FFE36A1B4A1268934201D946
:104E4000194A136003EB83039A0031461448104457
:104E5000FEF712FFE26A114B1B68DB6A9A42D4D25A
:104E6000D4E70027D2E70C4B4FF0FF321A60BBE7C4
:104E7000094A1360B8E70D4A13680133136000272D
:104E80003846F8BD504E0020744E0020C04E002021
:104E9000BC4E0020604E0020584E00204C53002095
:104EA000EC4E0020644E0020704E0020684E002022
:104EB00038B5354B1B6843B94FF0500383F3118865
:104EC000BFF36F8FBFF34F8FFEE701F09BF92E4BBF
:104ED0001A68013A1A601B68002B4FD12B4B1B68D4
:104EE0000BB900244BE00024294B1B681BB3284B53
:104EF000DB68DC6804F11800FEF7E2FE251D284699
:104F0000FEF7DEFEE06A234B1B68984201D9214B75
:104F1000186000EB800029461F4B03EB8000FEF772
:104F2000ABFEE26A1D4B1B68DB6A9A42DCD31C4B6A
:104F300001221A60D8E70CB1FFF7D4FC194B1C68AA
:104F400084B9174B1C68D4B14FF0E0234FF0805266
:104F5000C3F8042DBFF34F8FBFF36F8F01240EE012
:104F6000013C07D0FFF718FF0028F9D00C4B0122B5
:104F70001A60F5E70B4B00221A60E2E7002401F00B
:104F800063F9204638BD00BF504E0020784E002007
:104F9000A84E0020704E0020EC4E00204C53002004
:104FA000644E0020684E002010B5A8B10446104B96
:104FB0001B6843B14FF0500383F31188BFF36F8F29
:104FC000BFF34F8FFEE7FFF7D1FE00212046FFF72A
:104FD000D1FDFFF76DFF48B94FF0E0234FF080524D
:104FE000C3F8042DBFF34F8FBFF36F8F10BD00BF09
:104FF000504E0020204B1B681BB1204B01221A6031
:1050000070471E4B00221A601D4B1B6803EB830187
:105010008A001C498A585AB90BB1013BF6E74FF098
:10502000500383F31188BFF36F8FBFF34F8FFEE7F9
:10503000084603EB83018A000244516849685160C5
:1050400003EB830C4FEA8C020832024491420BD0EE
:1050500003EB830291000B4A0A445268D1680A4A62
:105060001160074A13607047486862469100054A1C
:105070000A445060ECE700BF504E0020644E002010
:10508000704E0020EC4E00204C53002058B110B55B
:105090000C46094A11681831FEF7F9FD0121204636
:1050A000FFF768FD10BD4FF0500383F31188BFF385
:1050B0006F8FBFF34F8FFEE74C53002038B570B1B0
:1050C0000D4614460A4A11681831FEF7D5FD0CB199
:1050D0004FF0FF3521462846FFF74CFD38BD4FF015
:1050E000500383F31188BFF36F8FBFF34F8FFEE739
:1050F0004C53002038B5C368DC6824B304F11805AC
:105100002846FEF7DDFD184B1B682BBB251D2846E6
:10511000FEF7D6FDE06A154B1B68984201D9134B88
:10512000186000EB80002946114B03EB8000FEF76E
:10513000A3FDE26A0F4B1B68DB6A9A4211D901207A
:105140000D4B186038BD4FF0500383F31188BFF347
:105150006F8FBFF34F8FFEE729460848FEF78CFD9F
:10516000E7E70020EEE700BF504E0020704E002021
:10517000EC4E00204C530020644E0020A84E00202E
:10518000034B1B680360034B1B684360704700BF01
:10519000604E0020744E0020E0B170B50C4605460C
:1051A00009B301F02FF81C4B19686B68C81A226804
:1051B000B2F1FF3F28D0DFF864C0DCF800C02E68F1
:1051C000664501D08B4224D9824215D80023236042
:1051D00001241AE04FF0500383F31188BFF36F8F5F
:1051E000BFF34F8FFEE74FF0500383F31188BFF3F7
:1051F0006F8FBFF34F8FFEE75B1A1344236028467F
:10520000FFF7BEFF002400E0002401F01DF8204657
:1052100070BD0124F9E700BF744E0020604E0020ED
:10522000014B01221A607047644E0020014B186840
:10523000704700BF4C530020054B1B6833B1054B32
:105240001B680BB100207047022070470120704797
:105250006C4E0020504E002000283ED038B5044649
:10526000C36A204A1268D26A93422ED28269002A07
:1052700005DB1C4A1268D26AC2F138028261616998
:1052800003EB8303184A02EB8303994205D0154BC5
:105290001B68DB6AE362012038BD251D2846FEF746
:1052A0000FFD104B1B68D86AE062104B1B689842D8
:1052B00001D90E4B186000EB800029460A4B03EB26
:1052C0008000FEF7D9FC0120E6E7C26C054B1B68A5
:1052D000DB6A9A4203D30020DEE7002070470120FA
:1052E000DAE700BF4C530020EC4E0020704E002047
:1052F00000283BD038B504461E4B1B68834208D0BB
:105300004FF0500383F31188BFF36F8FBFF34F8FBC
:10531000FEE7036D43B94FF0500383F31188BFF3E9
:105320006F8FBFF34F8FFEE7013B0365C16AC26C0D
:1053300091421DD00BB1002038BD051D2846FEF757
:10534000BFFCE06CE062C0F13803A3610A4B1B684C
:10535000984201D9084B186000EB80002946074BA2
:1053600003EB8000FEF788FC0120E5E70020704792
:105370000020E1E74C530020704E0020EC4E00204E
:10538000002846D038B50446036D43B94FF05003AA
:1053900083F31188BFF36F8FBFF34F8FFEE7C26CAB
:1053A0008A4200D20A46E16A914201D0012B00D024
:1053B00038BD184B1B68A34222D0E262A369002BC0
:1053C00002DBC2F13802A261626901EB8101124B7A
:1053D00003EB81039A42EBD1251D2846FEF770FCB2
:1053E000E06A0E4B1B68984201D90C4B186000EB29
:1053F00080002946084B03EB8000FEF73DFCD7E711
:105400004FF0500383F31188BFF36F8FBFF34F8FBB
:10541000FEE770474C530020EC4E0020704E0020F9
:10542000054B1B6823B1044B1A68136D01331365D8
:10543000014B1868704700BF4C530020064B1A6898
:1054400013682BB90123036023B9D3681868704728
:105450000023F8E7002070475054002008B5416051
:10546000006191420CD8D21A83699A4201D301207B
:1054700008BD011D0B4B1868FEF709FC0020F7E77B
:105480009A422CBF00220122994238BF00220AB161
:105490000120EDE7011D044B1868FEF7F8FB002022
:1054A000E6E700BF4C5400205054002030B583B0D4
:1054B00000F0A8FE114B1B681BB100F0C5FE03B045
:1054C00030BD0F4D2846FEF7C9FB0E4C2046FEF7B7
:1054D000C5FB0D4B1D600D4B1C60002300930C4B56
:1054E0000C4A10210A20FEF7F9FC044B1860002832
:1054F000E3D00949FFF78CF9DFE700BF48540020EB
:105500006854002054540020505400204C54002073
:1055100050530020A0530020445D010810B588B00E
:10552000FFF7C4FF124B1B68CBB10024059406940F
:1055300007AA06A905A800F0CDFC059B0293069BCF
:105540000193022300932346079A0A490A48FFF76A
:1055500053FB0A4B186010B1012008B010BD4FF08A
:10556000500383F31188BFF36F8FBFF34F8FFEE7B4
:10557000485400204C5D0108855800084454002020
:10558000B8B19C4603461848006858B300B585B0CA
:1055900000910192029305291CDCFFF74DFE0228C1
:1055A00010D000231A4669460F480068FEF74EFDEA
:1055B00015E04FF0500383F31188BFF36F8FBFF3F3
:1055C0004F8FFEE70023069A694607480068FEF7FA
:1055D0003DFD04E0002362466946FEF741FE05B04A
:1055E0005DF804FB002070474854002070B582B07D
:1055F0001B4B1B681A6862B3DB681E68DC68251DDC
:105600002846FEF75DFB236A2046984794F8283029
:1056100013F0040FECD0A36933449E4207D26360B9
:10562000246129460E4B1868FEF731FBE0E70021A4
:1056300000910B4632462046FFF7A2FF0028D7D143
:105640004FF0500383F31188BFF36F8FBFF34F8F79
:10565000FEE7044A106802490860136002B070BD9A
:10566000505400204C54002038B50546FFF786FB07
:105670000446074B1B68834205D800232B60044B6C
:105680001C60204638BDFFF7B1FF01232B60F6E711
:105690004054002070B582B006460D46174909688F
:1056A000C968CC68201DFEF70BFB94F828C01CF0DD
:1056B000040F08D12CF0010C84F828C0236A20467E
:1056C000984702B070BDA16933462A46314420464E
:1056D000FFF7C4FE0028F1D0002100910B463246AE
:1056E0002046FFF74DFF0028E8D14FF0500383F329
:1056F0001188BFF36F8FBFF34F8FFEE75054002028
:1057000070B582B006460C46FFF730FB01A8FFF7E4
:10571000ABFF019B3BBB0546B04228BF002C19D014
:1057200024B1134A12681268DAB901242246711BA7
:10573000104B1868FFF7ACF8FFF7BAFBA8B94FF0A9
:10574000E0234FF08052C3F8042DBFF34F8FBFF317
:105750006F8F0AE0FFF7ACFB29463046FFF79AFF50
:1057600003E01C46E2E7FFF7A3FB02B070BD00BFF9
:105770004C5400204854002010B588B002E0049B2F
:10578000002B0FDA002204A93D4B1868FEF728FE13
:10579000002872D0049B002BF1DA07990698059B2C
:1057A0009847ECE7069C636913B1201DFEF788FA61
:1057B00003A8FFF759FF0246049B092BE2D8DFE854
:1057C00003F00505052F364E05052F3694F82830D1
:1057D00043F0010384F82830059BA1691944204651
:1057E000FFF73CFE0028CDD0236A2046984794F866
:1057F000283013F0040FC5D0A269002100910B4698
:10580000059802442046FFF7BBFE0028BAD14FF0AE
:10581000500383F31188BFF36F8FBFF34F8FFEE701
:1058200094F8283023F0010384F82830AAE794F88C
:10583000283043F0010384F828300599A16129B18B
:10584000034601442046FFF709FE9BE74FF0500353
:1058500083F31188BFF36F8FBFF34F8FFEE794F888
:10586000283013F0020F04D023F0010384F828300D
:1058700088E7204600F020FC84E708B010BD00BF98
:105880004854002000B583B001A8FFF7D7FD019967
:10589000FFF736FFFFF770FFF6E708B54FF0E0239C
:1058A0001B69FFF7C9FC012800D108BD00F01AFDF3
:1058B000FBE70000EFF305832BB9064B186828B906
:1058C00001221A6070476FF0050070474FF0FF30FB
:1058D000704700BF345B0020EFF3058373B90A4BB8
:1058E0001B68012B0DD110B50024084BDC77064B4B
:1058F00002221A60FFF7EEF9204610BD6FF0050096
:1059000070474FF0FF307047345B002000ED00E03F
:1059100008B5EFF3058313B1FFF736FA08BDFFF7BB
:105920002DFAFBE7F0B587B000240594EFF305846A
:1059300004BBF8B1002A34D0156893692BB11E4618
:10594000013B372B02D9002015E01826536813F0CD
:10595000010F3FD1546984B14FEA940C93682BB185
:10596000D7685B2F02D9176907B184B943B14FF0EB
:10597000FF330BB3059807B0F0BD4FF0800CEDE797
:10598000D368A3B91369ABB14FF0FF33F1E70293CA
:10599000019700960B4662462946FFF72DF90590C0
:1059A000E8E71546002318264FF0800CE1E74FF09A
:1059B000FF33DEE70023DCE705AB019300960B46DF
:1059C0001FFA8CF22946FFF752F90128D2D00023A2
:1059D0000593CFE70020CEE708B5EFF3058333B991
:1059E00008B9002008BDFFF7DFFA0020FAE76FF0E2
:1059F0000500F7E770B5EFF30585002D45D10446A6
:105A000030B3436813F0010500D0012513F0080FEF
:105A10003ED17CB3A16811B1E3684F2B1FD8C9B147
:105A20004FF0FF337BBB4DB30420FEF7DFFB064690
:105A30002EB104B1246821463046FEF7E9FE002E5F
:105A40000CBF002505F0010505B346F001061DE079
:105A50002B46DBE7E3687BB14FF0FF33E2E725B18C
:105A60000420FEF7CEFB0646E2E70120FEF7C9FB65
:105A70000646DDE70023D5E70023D3E70120FEF744
:105A8000B5FB0646D4E70026D9E70026304670BDB0
:105A90000026FBE7EFF30582DAB910B503460C46A2
:105AA00020F0010003F00101012B15D941B121467D
:105AB000FEF718FE012812D09CB16FF001000FE034
:105AC0002146FEF73CFD01280ED07CB16FF00100AD
:105AD00006E06FF0050070476FF0030000E0002063
