:020000040800F2
:10000000000002201D280008490500084B050008D3
:100010004D0500084F0500085105000800000000CC
:100020000000000000000000000000009126000811
:1000300053050008000000003127000815260008BD
:10004000712800087128000871280008712800082C
:10005000712800087128000871280008712800081C
:10006000712800087128000871280008712800080C
:1000700071280008712800087128000871280008FC
:1000800071280008712800087128000871280008EC
:1000900071280008712800087128000871280008DC
:1000A000712800085505000871280008712800080B
:1000B00071280008712800087128000871280008BC
:1000C00071280008712800087128000871280008AC
:1000D000712800087128000871280008712800089C
:1000E000650500087128000800000000712800085C
:1000F000712800087128000871280008712800087C
:10010000712800087128000871280008712800086B
:10011000712800087128000871280008712800085B
:10012000712800087128000871280008712800084B
:10013000712800087105000871280008712800085E
:10014000712800087128000800000000000000006D
:10015000712800087128000871280008712800081B
:10016000712800087128000871280008712800080B
:1001700071280008712800087128000871280008FB
:1001800071280008712800087128000871280008EB
:1001900071280008712800087128000871280008DB
:1001A00071280008712800087128000871280008CB
:1001B00071280008712800087128000871280008BB
:1001C00071280008712800087128000871280008AB
:1001D000712800087128000871280008712800089B
:1001E000712800087128000871280008712800088B
:1001F000712800087128000871280008712800087B
:10020000712800087128000871280008712800086A
:10021000712800087128000871280008712800085A
:1002200071280008712800087128000800000000EB
:10023000712800087128000871280008712800083A
:10024000712800087128000871280008712800082A
:10025000712800087128000871280008712800081A
:10026000712800087128000871280008712800080A
:1002700071280008712800087128000871280008FA
:10028000712800087128000871280008000000008B
:08029000712800087128000824
:1002A00010F8012B11F8013B012A28BF9A42F7D020
:1002B000D01A70470348044B834202D0034B03B16A
:1002C000184770479C0000249C0000240000000098
:1002D0000548064B1B1AD90F01EBA301491002D0A8
:1002E000034B03B1184770479C0000249C00002476
:1002F0000000000010B5064C237843B9FFF7DAFF81
:10030000044B13B10448AFF300800123237010BDE8
:100310009C00002400000000482D000808B5054B93
:100320001BB105490548AFF30080BDE80840FFF761
:10033000CFBF00BF00000000A0000024482D00082F
:1003400008B5024B186802F071F908BD6C01002471
:1003500008B5024B186802F069F908BD680100246D
:1003600008B500F0FFFB10F0800F00D108BD024B74
:10037000186802F05BF9F9E76C01002482B00023F1
:10038000019302E0019B013301934FF4FA5300FB08
:1003900003F3019A9342F5D802B0704700B59FB0BD
:1003A0004C2200210BA802F064FA2022002103A8AD
:1003B00002F05FFA042001F0EFFA002100913B4BBC
:1003C0009A6942F440429A619B6903F44043009366
:1003D000374BDA6A42F00102DA62DB6A03F00103AA
:1003E0000093009B019102E0019B01330193019A6C
:1003F000304B9A42F8DD42F2107300E013462B4A6C
:10040000926912F4005F03D15A1E002BF6D11346F5
:1004100073B94FF48041284801F0B4FA00230293E5
:10042000029A264B9A42F4DC029B01330293F7E7CF
:1004300002230B9301230E9340230F930023149365
:100440000BA800F093FB70B14FF480411A4801F003
:1004500099FA00230293029A194B9A42F4DC029B08
:1004600001330293F7E73F2303930023049305939B
:1004700006934023079308934FF4806209920A93EE
:10048000012103A800F0C6FF48B91FB05DF804FBC6
:10049000029B01330293029A094B9A42F8DD8021B4
:1004A000054801F06FFA00230293F4E70048025870
:1004B000000400589F860100000402587F1A0600BD
:1004C0003F0D030000B587B001F022FBFFF766FF88
:1004D0001B4BD3F8E02042F00202C3F8E020D3F82F
:1004E000E03003F002030093009B01A90023019375
:1004F0004B608B60CB600B6144F28103019301235D
:100500000293104801F02EF90E4C0121204601F013
:1005100039FA4FF4FA70FFF731FF8021204601F0DD
:1005200031FA4FF4FA70FFF729FF4FF4804120466B
:1005300001F028FA4FF4FA70FFF720FFE4E700BF5C
:100540000044025800040258FEE7FEE7FEE7FEE71B
:10055000FEE7704708B5024800F0CDF808BD00BFBF
:100560007001002408B5002000F06CF808BD000000
:1005700008B5024800F034FA08BD00BFB8000024F6
:1005800000B583B00A4BD3F8F42042F00202C3F85E
:10059000F420D3F8F43003F002030193019B00220E
:1005A0000F216FF0010001F093FA03B05DF804FB36
:1005B000004402580F2801D90120704710B58AB0B5
:1005C000044600220146192001F082FA192001F0A8
:1005D0008FFA174B1C60174BD3F8F02042F0010242
:1005E000C3F8F020D3F8F03003F001030093009B30
:1005F00001A902A801F08CF801F078F843000E4A36
:10060000A2FB03239B0C013B0C480D4A026040F205
:10061000E732C260436000230361836000F0AAF9FF
:1006200010B101200AB010BD044800F017F8F9E736
:10063000000000240044025883DE1B4370010024A4
:100640000000014008B5034B03EBC00001F09AFA2B
:1006500008BD00BFBC0100247047000090F83D3089
:10066000012B3AD1022380F83D300268D36843F071
:100670000103D36003681B4AB3F1804F18BF934254
:100680001DD0A2F57C42934219D002F580629342BC
:1006900015D002F58062934211D002F57842934260
:1006A0000DD0A2F56C42934209D002F594329342E8
:1006B00005D01A6842F001021A600020704799685C
:1006C000094A0A40062A18BFB2F5803F07D01A68C7
:1006D00042F001021A60002070470120704700209C
:1006E000704700BF000001400700010070477047DD
:1006F00070477047704770B504460368DE681D692F
:1007000015F0020F10D016F0020F0DD06FF002029C
:100710001A610123037703689B6913F0030F64D008
:10072000FFF7E6FF0023237715F0040F12D016F031
:10073000040F0FD023686FF004021A61022323779D
:1007400023689B6913F4407F55D02046FFF7D0FF04
:100750000023237715F0080F12D016F0080F0FD0E2
:1007600023686FF008021A61042323772368DB698A
:1007700013F0030F46D02046FFF7BAFF002323777C
:1007800015F0100F12D016F0100F0FD023686FF075
:1007900010021A61082323772368DB6913F4407F72
:1007A00037D02046FFF7A4FF0023237715F0010F71
:1007B00002D016F0010F33D115F4025F02D016F00B
:1007C000800F35D115F4807F02D016F0800F37D11D
:1007D00015F0400F02D016F0400F39D115F0200F60
:1007E00002D016F0200F3BD170BDFFF780FF2046EE
:1007F000FFF77FFF96E72046FFF779FF2046FFF7D8
:1008000078FFA5E72046FFF772FF2046FFF771FF4C
:10081000B4E72046FFF76BFF2046FFF76AFFC3E708
:1008200023686FF001021A612046FFF75FFFC3E7FC
:1008300023686FF402521A61204600F0CCF8C1E739
:1008400023686FF480721A61204600F0C5F8BFE794
:1008500023686FF040021A612046FFF74BFFBDE7A7
:1008600023686FF020021A61204600F0B3F8BBE75E
:1008700070B40368394A904214BF00220122B0F1DB
:10088000804F14BF144642F00104ACB9344DA84265
:1008900014BF00250125334EB0420DD065B905F1D6
:1008A000804505F58235A84214BF0025012506F5CF
:1008B0000066B04200D01DB123F070034D682B4399
:1008C00014BB274CA04214BF00240124254DA8428C
:1008D0001AD0CCB904F1804404F58234A04214BF8C
:1008E0000024012405F50065A8420DD064B91E4C12
:1008F000A04214BF0024012405F59A35A84203D074
:1009000014B91A4CA04203D123F44073CC6823439A
:1009100023F080034C6923438C68C4620C688462B2
:10092000134CA04208BF42F0010262B90E4A904245
:1009300014BF0022012204F57054A04203D012B962
:100940000A4A904201D10A690263026842F0040235
:10095000026001224261036070BC704700000140E8
:1009600000080040000400400044014000480140ED
:100970000004014060B310B5044690F83D3013B355
:10098000022384F83D30214651F8040BFFF770FF35
:10099000012384F8483084F83E3084F83F3084F8EE
:1009A000403084F8413084F8423084F8433084F891
:1009B000443084F8453084F8463084F8473084F871
:1009C0003D30002010BD80F83C30FFF745FED7E7F2
:1009D00001207047704770477047704770477047F5
:1009E0002DE9F84304460368D3F8B06003F580525C
:1009F000D2F86051D2F834714FF0B042D2F8A880EA
:100A0000D2F8E89015F0400F02D017F0400F3FD118
:100A100015F0010F02D017F0010F42D115F4804FED
:100A200024D017F4804F21D0D4F8883043F0080345
:100A3000C4F8883015F4805F3ED0236803F58053F6
:100A4000D3F8602122F46F6222F00D02D204D20C9E
:100A5000C4F88C20D3F8342122F44042C3F8342166
:100A6000E023C4F884302046FFF77AFC16F4C04F28
:100A700030D116F0100F42D116F0200F4DD101F0F9
:100A80003BF8032857D019F4800F61D1BDE8F883F3
:100A900003F5805348F24002C3F86021FFF750FC91
:100AA000B6E7236803F5805348F20102C3F86021DA
:100AB0002046FFF74DFCB1E7236803F58053D3F8D8
:100AC000602102F4CD42C4F88C204FF4CD42C3F82B
:100AD0006021C8E7D4F8883043F01003C4F88830A8
:100AE0002368D3F8B830C4F89030E023C4F88430D9
:100AF0002046FFF735FC0023C4F89030B9E723689F
:100B0000D3F8C03003F06003C4F894302046FFF7F8
:100B100064FF0023C4F89430AEE72368D3F8D030E4
:100B200003F00F03C4F898302046FFF757FF002367
:100B3000C4F89830A3E718F4800FA7D04FF0B04363
:100B40004FF48002C3F8A8202046FFF748FF9DE736
:100B50004FF0B0434FF48002C3F8E8202046FFF77F
:100B60003EFF93E7D0F88C0070470000002800F0AB
:100B7000398338B50446036813F0010F25D0944A31
:100B8000136903F03803926A102B15D0182B0FD07D
:100B90006368B3F5803F3FD0002B53D18C4B1A686C
:100BA00022F480321A601A6822F480221A6038E037
:100BB00002F00302022AEBD1854B1B6813F4003FBD
:100BC00003D06368002B00F00F83236813F0020F3B
:100BD00000F0A1807E4A1369926A13F038035AD05C
:100BE000182B55D0E368002B00F0DE8078490A68A6
:100BF00022F0190213430B6000F0B8FF0546744B56
:100C00001B6813F0040F40F0AD8000F0AFFF401BF5
:100C10000228F4D90320EEE26D4A136843F48033CE
:100C2000136063682BB300F0A1FF0546684B1B6897
:100C300013F4003FC9D100F099FF401B6428F5D997
:100C40000320D8E2B3F5A02F09D0614B1A6822F433
:100C500080321A601A6822F480221A60E1E75C4B45
:100C60001A6842F480221A601A6842F480321A60CC
:100C7000D7E700F07BFF0546554B1B6813F4003F98
:100C8000A3D000F073FF401B6428F5D90320B2E223
:100C900012F0030FA6D14E4B1B6813F0040F03D0C4
:100CA000E368002B00F0A282494A136823F019037D
:100CB000E1680B43136000F059FF0546444B1B6885
:100CC00013F0040F06D100F051FF401B0228F5D9A4
:100CD000032090E200F050FF41F20303984212D843
:100CE0002269402A07D03A494B6823F47C3343EA0F
:100CF00002334B600FE0364A536823F47C3343F4ED
:100D00000033536007E0324A536823F0FE43216901
:100D100043EA01635360236813F0100F00F08880EA
:100D20002B4A136903F03803926A082B56D0182B0C
:100D300050D0E369002B00F0B880254A136843F0D7
:100D40008003136000F012FF0546214B1B6813F46B
:100D5000807F40F0888000F009FF401B0228F4D912
:100D6000032048E200F008FF41F20303984212D842
:100D70002269402A07D016494B6823F47C3343EAA2
:100D800002334B60C7E7124A536823F47C3343F4C1
:100D900000335360BFE70E4A536823F0FE432169D6
:100DA00043EA01635360B6E7094A136823F001037D
:100DB000136000F0DBFE0546054B1B6813F0040FC3
:100DC000A9D000F0D3FE401B0228F5D9032012E27F
:100DD0000044025802F00302012AAAD1A14B1B6869
:100DE00013F4807F03D0E369802B40F0018200F090
:100DF000C3FE41F20303984212D8226A202A07D088
:100E000098494B6823F0F84343EA82634B600FE054
:100E1000944A536823F0F84343F08043536007E05B
:100E2000904AD36823F07C53216A43EA0163D3607C
:100E3000236813F0080F60D06369002B49D0894AFA
:100E4000536F43F00103536700F090FE0546854B56
:100E50005B6F13F0020F50D100F088FE401B022898
:100E6000F5D90320C7E100F087FE41F20303984261
:100E700012D8226A202A07D07A494B6823F0F84317
:100E800043EA82634B60D3E7764A536823F0F84322
:100E900043F080435360CBE7724AD36823F07C531E
:100EA000216A43EA0163D360C2E76E4A136823F004
:100EB0008003136000F05AFE05466A4B1B6813F46A
:100EC000807FB5D000F052FE401B0228F5D90320E8
:100ED00091E1644A536F23F00103536700F046FE2B
:100EE0000546604B5B6F13F0020F06D000F03EFE2C
:100EF000401B0228F5D903207DE1236813F0200F61
:100F000029D0A3699BB1574A136843F480531360F7
:100F100000F02CFE0546534B1B6813F4005F1AD1FA
:100F200000F024FE401B0228F5D9032063E14D4A5E
:100F3000136823F48053136000F018FE0546494BF4
:100F40001B6813F4005F06D000F010FE401B02285F
:100F5000F5D903204FE1236813F0040F21D1636A10
:100F6000002B00F047813F4A126902F03802182A2C
:100F700000F0EE80022B79D03A4A136823F0807398
:100F8000136000F0F3FD0446364B1B6813F0007F3E
:100F900000F0DC8000F0EAFD001B0228F4D90320F9
:100FA00029E1314A136843F48073136000F0DEFDD9
:100FB00005462D4B1B6813F4807F06D100F0D6FD4B
:100FC000401B6428F5D9032015E1A368012B0AD042
:100FD0000BBB244B1A6F22F001021A671A6F22F022
:100FE00004021A6704E01F4A136F43F001031367FA
:100FF000A36833B300F0BAFD05461A4B1B6F13F01C
:10100000020FACD100F0B2FD401B41F28833984290
:10101000F3D90320EFE0052B09D0124B1A6F22F011
:1010200001021A671A6F22F004021A67E0E70D4BFB
:101030001A6F42F004021A671A6F42F001021A672F
:10104000D6E700F093FD0546064B1B6F13F0020F29
:1010500085D000F08BFD401B41F288339842F3D9D4
:101060000320C8E00044025800480258694A136847
:1010700023F08073136000F079FD0546654B1B6813
:1010800013F0007F06D000F071FD401B0228F5D957
:101090000320B0E05F4B996A5F4A0A40A16AE06AA8
:1010A00041EA00110A439A62226B013AC2F3080234
:1010B000616B0139490289B20A43A16B0139090404
:1010C00001F4FE010A43E16B0139090601F0FE411A
:1010D0000A431A63DA6A22F00102DA625A6B6FF38A
:1010E000CF02A16C42EAC1025A63DA6A22F00C0212
:1010F000216C0A43DA62DA6A22F00202616C0A4366
:10110000DA62DA6A42F48032DA62DA6A42F400328F
:10111000DA62DA6A42F48022DA62DA6A42F00102C2
:10112000DA621A6842F080721A6000F01FFD04460D
:10113000384B1B6813F0007F06D100F017FD001B31
:101140000228F5D9032056E0002054E0002052E0A8
:10115000304A916A106B012B4ED001F00303A26A52
:1011600093424BD1C1F30511E36A994248D1C0F3D0
:101170000802236B013B9A4244D1C0F34622636BC1
:10118000013B9A4240D1C0F30642A36B013B9A4215
:101190003CD1C0F30660E36B013B984238D11D4B54
:1011A0005B6BC3F3CC03A26C9A4201D1002022E016
:1011B000184AD36A23F00103D36200F0D7FC054636
:1011C00000F0D4FCA842FBD0124A536B6FF3CF035C
:1011D000A16C43EAC1035363D36A43F00103D362B2
:1011E000002008E001207047012004E0012002E017
:1011F000012000E0002038BD0120FCE70120FAE7D3
:101200000120F8E70120F6E70120F4E70120F2E7EA
:101210000120F0E7004402580CFCFFFF754B1B69EE
:1012200003F03803102B00F0DE80182B0FD0002BBA
:1012300040F0DB806F4B1B6813F0200F00F0D7806D
:101240006C4B1B68C3F3C1036B48D840704710B4A4
:10125000684B9A6A02F003029C6AC4F30510D96ACB
:1012600001F001015B6BC3F3CC0301FB03F307EE59
:10127000903AF8EE677A14F47C7F77D0012A4AD04E
:10128000022A76D0002A40F091805A4B1B6813F056
:10129000200F23D057490A68C2F3C102564BD340EE
:1012A00007EE103AF8EE476A07EE100AB8EE476A02
:1012B00086EE867A0B6BC3F3080306EE903AF8EEDF
:1012C000666A9FED4E6A67EE867A76EEA77AF7EE4B
:1012D000006A77EEA67A27EE277A38E007EE100A42
:1012E000F8EE476A9FED466A86EE267A414B1B6B05
:1012F000C3F3080306EE903AF8EE666A9FED3F6A84
:1013000067EE867A76EEA77AF7EE006A77EEA67A2F
:1013100027EE277A1BE007EE100AF8EE476A9FEDEA
:10132000396A86EE267A334B1B6BC3F3080306EE4D
:10133000903AF8EE666A9FED316A67EE867A76EE4D
:10134000A77AF7EE006A77EEA67A27EE277A294B7E
:101350001B6BC3F34623013307EE903AF8EE677A2E
:10136000C7EE276AFCEEE67A17EE900A5DF8044BAA
:10137000704707EE100AF8EE476A9FED236A86EE83
:10138000267A1C4B1B6BC3F3080306EE903AF8EE6B
:10139000666A9FED1A6A67EE867A76EEA77AF7EEAE
:1013A000006A77EEA67A27EE277AD0E707EE100AD2
:1013B000F8EE476A9FED136A86EE267A0D4B1B6B9B
:1013C000C3F3080306EE903AF8EE666A9FED0B6AE7
:1013D00067EE867A76EEA77AF7EE006A77EEA67A5F
:1013E00027EE277AB3E70948704709487047024853
:1013F000704700BF004402580090D003000000393D
:101400000024744C0024744A20BCBE4B40787D01FB
:1014100000093D00002800F0328170B50D460446F9
:101420009B4B1B6803F00F038B420BD2984A136847
:1014300023F00F030B431360136803F00F038B4279
:1014400040F01F81236813F0040F0CD02269914BE8
:101450009B6903F070039A4205D98E498B6923F08A
:1014600070031A438A61236813F0080F0CD0626975
:10147000884BDB6903F070039A4205D98549CB6933
:1014800023F070031A43CA61236813F0100F0CD0C5
:10149000A269804BDB6903F4E0639A4205D97D4978
:1014A000CB6923F4E0631A43CA61236813F0200F69
:1014B0000CD0E269774B1B6A03F070039A4205D99E
:1014C00074490B6A23F070031A430A62236813F00D
:1014D000020F0CD0E2686F4B9B6903F00F039A4236
:1014E00005D96C498B6923F00F031A438A6123687D
:1014F00013F0010F41D0674A936923F47063A16828
:101500000B4393616368022B0AD0032B27D0012B76
:101510002CD0604A126812F0040F06D10120ADE011
:10152000126812F4003F00F0AE805A490A6922F0B6
:10153000070213430B6100F019FB0646554B1B696C
:1015400003F038036268B3EBC20F16D000F00EFB55
:10155000801B41F288339842F0D903208EE04D4A37
:10156000126812F0007FE0D1012087E0494A12683A
:1015700012F4807FD9D1012080E0236813F0020F9C
:101580000CD0E268434B9B6903F00F039A4205D2EB
:1015900040498B6923F00F031A438A613C4B1B6857
:1015A00003F00F03AB420AD9394A136823F00F0343
:1015B0002B431360136803F00F03AB4265D123681C
:1015C00013F0040F0CD02269324B9B6903F07003B7
:1015D0009A4205D22F498B6923F070031A438A611E
:1015E000236813F0080F0CD062692A4BDB6903F003
:1015F00070039A4205D22749CB6923F070031A433E
:10160000CA61236813F0100F0CD0A269214BDB696B
:1016100003F4E0639A4205D21E49CB6923F4E063E8
:101620001A43CA61236813F0200F0CD0E269194BEA
:101630001B6A03F070039A4205D216490B6A23F025
:1016400070031A430A62FFF7E9FD12498B69C3F37D
:101650000323114AD35C03F01F03D8408B6903F0C6
:101660000F03D35C03F01F0320FA03F30B4A13604C
:101670000B4B18600B4B1868FEF79CFF70BD0120E8
:1016800070470120FAE70120F8E70120F6E700BFE4
:101690000020005200440258602D0008040000247D
:1016A000080000240000002408B5FFF7B7FD0B4A2E
:1016B0009369C3F303230A49CB5C03F01F0320FAA9
:1016C00003F3926902F00F02885C00F01F0023FA16
:1016D00000F0044A1060044A136008BD0044025838
:1016E000602D0008040000240800002408B5FFF75E
:1016F000DBFF054BDB69C3F30223044AD35C03F031
:101700001F03D84008BD00BF00440258602D0008E8
:101710003F230360114B1A6902F0070242609A6985
:1017200002F4706282609A6902F00F02C2609A69E4
:1017300002F070020261DA6902F070024261DA6955
:1017400002F4E06282611B6A03F07003C361044B20
:101750001B6803F00F030B60704700BF0044025882
:1017600000200052F0B583B000236BE085685E0076
:101770000324B44025EA0405CC68B4402C438460BB
:10178000456825EA0C054C68C4F300149C402C43C2
:10179000446069E0DD08083550F8254003F0070C87
:1017A0004FEA8C0C4FF00F0E0EFA0CFE24EA0E0ED0
:1017B0000C6904FA0CF444EA0E0440F825406BE08E
:1017C000092400E0002404FA0EF42C430CF1020C6E
:1017D000694D45F82C404FF0B0442568D44325EAC4
:1017E00002064F6817F4801F01D042EA05064FF049
:1017F000B0452E606D6804EA05064F6817F4001FB7
:1018000001D042EA05064FF0B0456E60D5F884502D
:1018100004EA05064F6817F4003F01D042EA0506C6
:101820004FF0B045C5F88460D5F880502C404E6824
:1018300016F4803F01D042EA05044FF0B042C2F8EE
:10184000804001330A6832FA03F400F092804FF0CE
:10185000010C0CFA03FC1CEA0202F2D04C6804F002
:101860000304013C012C81D94C6804F00304032CCF
:101870000CD0C4685D004FF0030C0CFA05FC24EAA0
:101880000C0C8C68AC4044EA0C04C4604C6804F056
:101890000304022C3FF47EAF04684FEA430E4FF07E
:1018A000030C0CFA0EFC24EA0C0C4C6804F0030444
:1018B00004FA0EF444EA0C0404604C6814F4403F4B
:1018C000BFD02E4CD4F8F45045F00205C4F8F450C3
:1018D000D4F8F44004F002040194019C4FEA930C04
:1018E0000CF10205244C54F8255003F0030E4FEA86
:1018F0008E0E0F2404FA0EF425EA0405204CA042B3
:101900003FF460AF04F58064A04222D004F5806407
:10191000A04220D004F58064A0421ED004F580646B
:10192000A0421CD004F58064A0421AD004F5806463
:10193000A04218D004F58064A04216D004F580645B
:10194000A04214D004F58064A0423FF439AF0A24C9
:1019500039E7012437E7022435E7032433E7042479
:1019600031E705242FE706242DE707242BE7082479
:1019700029E703B0F0BD00BF00040058004402583E
:1019800000000258436901EA030221EA030141EA27
:10199000024181617047000038B50446224BDB6884
:1019A00003F00703062B07D01F4BDB6803F03F0350
:1019B000834236D0012038BD1B4AD36823F03F0351
:1019C0000343D36000F0D2F80546174B5B6813F46D
:1019D000005F07D100F0CAF8431BB3F57A7FF4D952
:1019E0000120E8E72E2C18BF1E2C08D02D2C14BF88
:1019F000002301231D2C02D00BB90020DBE700F0EF
:101A0000B5F80446084BDB6813F4803F07D100F0BB
:101A1000ADF8001BB0F57A7FF4D90120CBE70020A8
:101A2000C9E70020C7E700BF00480258002807DBCD
:101A300000F01F02400901239340024A42F820307F
:101A4000704700BF00E100E0002804DB0901C9B2D3
:101A5000044B1954704700F00F000901C9B2024B42
:101A60001954704700E400E014ED00E000B500F008
:101A70000700C0F1070CBCF1040F28BF4FF0040CA5
:101A8000031D062B0FD9C31E4FF0FF3E0EFA0CF0BC
:101A900021EA000199400EFA03FE22EA0E0241EA11
:101AA00002005DF804FB0023EEE700000649CB6866
:101AB00023F4E0631B041B0C000200F4E06003430A
:101AC000024A1A43CA60704700ED00E00000FA05C0
:101AD00010B50446054BD868C0F30220FFF7C6FFD7
:101AE00001462046FFF7B0FF10BD00BF00ED00E04B
:101AF00008B5FFF79BFF08BD044B1B6803F0F0031C
:101B0000702B01D0012070470320704700ED00E0EA
:101B100010B50320FFF7CAFFFFF780FB0F498B6961
:101B2000C3F303230E4AD35C03F01F03D8408B6931
:101B300003F00F03D35C03F01F0320FA03F3094AF9
:101B40001360094B18600F20FEF734FD10B101241B
:101B5000204610BD0446FEF713FDF9E70044025885
:101B6000602D00080400002408000024014B1868C0
:101B7000704700BFC4010024014B1868000C704777
:101B80000010005C70B504460368C3F3014503F020
:101B90001F0301269E40FFF7AFFF03280AD0074B23
:101BA00003EB05131A68324203D01E60636803B169
:101BB000984770BD024B03EB0513F3E7C8000058CC
:101BC00088000058374BD3F8882042F47002C3F8DD
:101BD00088201A6942F010021A61334B1B6803F027
:101BE0000F03062B06D8304A136823F00F0343F087
:101BF000070313602D4B1A6842F001021A6000229D
:101C00001A6119682A4A0A401A60274B1B6813F0A8
:101C1000080F06D0244A136823F00F0343F007038C
:101C20001360224B00229A61DA611A62214999629B
:101C30002149D962214919635A639963DA631964A6
:101C40005A64196821F4802119601A664FF0B04275
:101C5000D2F8E43043F48043C2F8E430184B1B68F8
:101C60006FF30F03B3F1005F03D2164B0122C3F8E9
:101C700008210E4BD3F8D43013F4805F10D10B4BF6
:101C8000D3F8D42042F48052C3F8D4200E4A43F251
:101C9000D2011160D3F8D42022F48052C3F8D420AA
:101CA000704700BF00ED00E00020005200440258E1
:101CB0007FEDF6EA000202020000FF01800201014E
:101CC0000010005C0080005100400052054AD368BB
:101CD00023F00203D360034B5B6813F4005FFAD078
:101CE000704700BF0048025843684B609A688A609A
:101CF000516099600861036801330360704730B434
:101D00000D68B5F1FF3F11D000F108031C465B6878
:101D10001A68AA42FAD963684B6099608C60616066
:101D2000086103680133036030BC70470469F2E75F
:101D30000369416882688A60416851605A688242DA
:101D400006D0002202611A68013A1A6018687047CA
:101D500082685A60F5E710B5044600F0ABFCA26B50
:101D6000E36B9A4204D0002400F0C6FC204610BD6C
:101D70000124F9E770B504461546866B026C5AB922
:101D800003681BB100200136A66370BD806800F0B7
:101D9000F9FB0023A360F6E76DB9406800F096FDFB
:101DA0006368226C13446360A268934219D323686A
:101DB00063602846E7E7C06800F088FDE368226CAE
:101DC00051429B1AE3602268934202D2A3680B44FB
:101DD000E360022D01D00020D5E726B1013E0020AE
:101DE000D1E72846CFE70020CDE738B5054600F01B
:101DF00061FC95F8454064B201E0013C64B2002CFE
:101E00000ADD6B6A43B105F1240000F00FFB0028E6
:101E1000F3D000F0A1FBF0E7FF2385F8453000F098
:101E20006BFC00F047FC95F8444064B201E0013CD3
:101E300064B2002C0ADD2B6943B105F1100000F0FB
:101E4000F5FA0028F3D000F087FBF0E7FF2385F8D0
:101E5000443000F051FC38BDF0B585B0019288B136
:101E60000F461D460446B1B1022D20D1E36B012B74
:101E70001DD04FF0500383F31188BFF36F8FBFF372
:101E80004F8FFEE74FF0500383F31188BFF36F8F3E
:101E9000BFF34F8FFEE7036C002BE5D04FF05003EC
:101EA00083F31188BFF36F8FBFF34F8FFEE700F00E
:101EB00059FB064658B9019B002B48D04FF0500300
:101EC00083F31188BFF36F8FBFF34F8FFEE70026B8
:101ED0003DE02A4639462046FFF74CFF636A7BB94E
:101EE00048B14FF0E0234FF08052C3F8042DBFF308
:101EF0004F8FBFF36F8F00F0FFFB012005B0F0BDE7
:101F000004F1240000F092FA0028F4D04FF0E0230E
:101F10004FF08052C3F8042DBFF34F8FBFF36F8F84
:101F2000E9E700F0E9FB0020E8E702A800F0C4FAC6
:101F3000012619E0002384F8443021E0002384F8CE
:101F4000453023E02046FFF750FF00F08FF900F006
:101F5000B1FBA26BE36B9A42BBD3022DB9D0019BBC
:101F6000002BDED0002EE0D000F0C6FB00F0EAF837
:101F700000F0A0FB94F8442052B2B2F1FF3FD9D058
:101F800094F8452052B2B2F1FF3FD7D000F0B4FB35
:101F900001A902A800F09CFAD8B92046FFF7DBFEA1
:101FA0000028CFD0019904F1100000F027FA204654
:101FB000FFF71BFF00F05AF90028C8D14FF0E023CB
:101FC0004FF08052C3F8042DBFF34F8FBFF36F8FD4
:101FD000BDE72046FFF709FF00F048F900208DE734
:101FE00068B170B50C460546036C8BB14FF05003D9
:101FF00083F31188BFF36F8FBFF34F8FFEE74FF06E
:10200000500383F31188BFF36F8FBFF34F8FFEE749
:102010000368EBB100F0D4FBEFF311864FF05003EF
:1020200083F31188BFF36F8FBFF34F8FAA6BEB6BF6
:10203000934226D995F845305BB20132AA63B3F1D9
:10204000FF3F11D001335BB285F84530012019E024
:102050008368002BDED04FF0500383F31188BFF369
:102060006F8FBFF34F8FFEE76B6A0BB9012009E05A
:1020700005F1240000F0DAF938B144B10120206004
:1020800000E0002086F3118870BD0120FAE70120EE
:10209000F8E70000084B1B681B6823B9074B4FF09B
:1020A000FF321A607047044B1B68DB68DB685A68B4
:1020B000024B1A60704700BF18020024CC010024B4
:1020C00070B504460D46194B1E68194B186804304C
:1020D000FFF72EFEB4F1FF3F14BF00230123002DB4
:1020E00008BF00236BB93444114B1B685C60A642E7
:1020F0000ED9104B18680E4B19680431FFF7FFFD1D
:1021000070BD0B4B196804310B48FFF7EDFDF7E785
:102110000A4B1868064B19680431FFF7F0FD084BAD
:102120001B68A342ECD9064B1C60E9E7E4010024DC
:102130007C06002414020024EC0100241802002470
:10214000CC010024024A136801331360704700BFBA
:10215000C8010024F8B53A4B1B68002B69D1394BF4
:102160001D6801351D60C5B9374B1B681B6843B13D
:102170004FF0500383F31188BFF36F8FBFF34F8F7E
:10218000FEE7314A1168314B186810601960304A17
:10219000136801331360FFF77DFF2E4B1B68AB42C2
:1021A0003DD900272C4B1B68DB6A03EB83039A00A5
:1021B0002A4B9B58012B00D90127294B1B68002B68
:1021C0003CD001273AE001271F4B1B681B6843B333
:1021D0001D4B1B68DB68DC6863689D4226D3261DA7
:1021E0003046FFF7A5FDA36A1BB104F11800FFF705
:1021F0009FFDE36A1B4A1268934201D9194A136092
:1022000003EB83039A00314614481044FFF76CFD3A
:10221000E26A114B1B68DB6A9A42D4D2D4E70027EA
:10222000D2E70C4B4FF0FF321A60BBE7094A13604C
:10223000B8E70D4A13680133136000273846F8BD2C
:10224000C8010024E4010024180200241402002420
:10225000D0010024CC0100247C0600241C020024B0
:10226000D4010024E0010024D801002438B5354B06
:102270001B6843B94FF0500383F31188BFF36F8F8E
:10228000BFF34F8FFEE700F015FA2E4B1A68013AA4
:102290001A601B68002B4FD12B4B1B680BB9002415
:1022A0004BE00024294B1B681BB3284BDB68DC6820
:1022B00004F11800FFF73CFD251D2846FFF738FD07
:1022C000E06A234B1B68984201D9214B186000EB50
:1022D000800029461F4B03EB8000FFF705FDE26AF3
:1022E0001D4B1B68DB6A9A42DCD31C4B01221A602F
:1022F000D8E70CB1FFF7CEFE194B1C6884B9174B19
:102300001C68D4B14FF0E0234FF08052C3F8042D85
:10231000BFF34F8FBFF36F8F01240EE0013C07D056
:10232000FFF718FF0028F9D00C4B01221A60F5E7DF
:102330000B4B00221A60E2E7002400F0DDF9204692
:1023400038BD00BFC8010024E801002400020024B9
:10235000E00100241C0200247C060024D401002497
:10236000D8010024204B1B681BB1204B01221A60AE
:1023700070471E4B00221A601D4B1B6803EB830144
:102380008A001C498A585AB90BB1013BF6E74FF055
:10239000500383F31188BFF36F8FBFF34F8FFEE7B6
:1023A000084603EB83018A00024451684968516082
:1023B00003EB830C4FEA8C020832024491420BD0AB
:1023C00003EB830291000B4A0A445268D1680A4A1F
:1023D0001160074A13607047486862469100054AD9
:1023E0000A445060ECE700BFC8010024D401002477
:1023F000E00100241C0200247C06002458B110B522
:102400000C46094A11681831FFF779FC0121204672
:10241000FFF756FE10BD4FF0500383F31188BFF352
:102420006F8FBFF34F8FFEE77C06002438B5C3687B
:10243000DC6824B304F118052846FFF779FC184B33
:102440001B682BBB251D2846FFF772FCE06A154B65
:102450001B68984201D9134B186000EB8000294695
:10246000114B03EB8000FFF73FFCE26A0F4B1B6848
:10247000DB6A9A4211D901200D4B186038BD4FF02C
:10248000500383F31188BFF36F8FBFF34F8FFEE7C5
:1024900029460848FFF728FCE7E70020EEE700BFE1
:1024A000C8010024E00100241C0200247C06002452
:1024B000D401002400020024034B1B680360034B7B
:1024C0001B684360704700BFD0010024E401002472
:1024D000E0B170B50C46054609B300F0EBF81C4BB3
:1024E00019686B68C81A2268B2F1FF3F28D0DFF87C
:1024F00064C0DCF800C02E68664501D08B4224D948
:10250000824215D80023236001241AE04FF05003C3
:1025100083F31188BFF36F8FBFF34F8FFEE74FF048
:10252000500383F31188BFF36F8FBFF34F8FFEE724
:102530005B1A134423602846FFF7BEFF002400E027
:10254000002400F0D9F8204670BD0124F9E700BF4F
:10255000E4010024D0010024014B01221A607047DD
:10256000D4010024054B1B6833B1054B1B680BB12C
:10257000002070470220704701207047DC010024D2
:10258000C801002400283BD038B504461E4B1B6808
:10259000834208D04FF0500383F31188BFF36F8F4D
:1025A000BFF34F8FFEE7036D43B94FF0500383F342
:1025B0001188BFF36F8FBFF34F8FFEE7013B0365B9
:1025C000C16AC26C91421DD00BB1002038BD051DFF
:1025D0002846FFF7ADFBE06CE062C0F13803A36171
:1025E0000A4B1B68984201D9084B186000EB800029
:1025F0002946074B03EB8000FFF776FB0120E5E758
:10260000002070470020E1E77C060024E001002460
:102610001C02002408B54FF0E0231B69FFF7A2FF5E
:10262000012800D108BD00F0B5F8FBE720B300B5E4
:1026300083B0EFF30583A3B10023019301A9FFF752
:10264000CFFC01281BD1019898B14FF0E0234FF047
:102650008052C3F8042DBFF34F8FBFF36F8F00205C
:1026600007E000231A461946FFF7F6FB012809D1B7
:10267000002003B05DF804FB6FF0030070476FF0BB
:102680000200F6E76FF00200F3E700000000000030
:10269000074B19680868B0E8F04F80F30988BFF36A
:1026A0006F8F4FF0000080F311887047AFF3008008
:1026B0007C0600244FF0500383F31188BFF36F8F23
:1026C000BFF34F8F0B4A136801331360012B00D007
:1026D00070474FF0E023D3F8043D13F0FF0FF7D01D
:1026E0004FF0500383F31188BFF36F8FBFF34F8F09
:1026F000FEE700BF0C000024094B1B6843B94FF0F4
:10270000500383F31188BFF36F8FBFF34F8FFEE742
:10271000013B034A13600BB983F31188704700BF74
:102720000C00002400000000000000000000000079
:10273000EFF30980BFF36F8F154B1A681EF0100F6F
:1027400008BF20ED108A20E9F04F106009B44FF067
:10275000500080F31188BFF34F8FBFF36F8FFFF7E7
:1027600001FE4FF0000080F3118809BC1968086869
:10277000B0E8F04F1EF0100F08BFB0EC108A80F3E5
:102780000988BFF36F8F7047AFF30080AFF300800D
:102790007C06002408B54FF0500383F31188BFF383
:1027A0006F8FBFF34F8FFFF7D5FC28B14FF0E023B9
:1027B0004FF08052C3F8042D002383F3118808BD25
:1027C000EFF305830F2B0ED9114A9A5C114B1B783E
:1027D0009A4208D24FF0500383F31188BFF36F8FF2
:1027E000BFF34F8FFEE74FF0E023D3F80C3D03F427
:1027F000E063094A1268934208D94FF0500383F30B
:102800001188BFF36F8FBFF34F8FFEE7704700BF94
:10281000F0E300E08406002480060024DFF838D0CE
:10282000FFF754FAFFF7CEF90C480D490D4A002383
:1028300002E0D458C4500433C4188C42F9D30A4A75
:102840000A4C002301E013600432A242FBD300F0E3
:1028500019F8FDF737FE7047000002200000002441
:102860009C000024102F00089C00002488060024EF
:10287000FEE702440346934200D1704703F8011B70
:10288000F9E7000070B50D4B0D4D5B1B9C10002649
:10289000A64209D100F058FA0A4D0B4B5B1B9C1065
:1028A0000026A64205D170BD55F8043B9847013675
:1028B000EEE755F8043B98470136F2E7042F00088D
:1028C000042F0008042F00080C2F00080A4491422E
:1028D00000F1FF3300D1704710B511F8014B03F838
:1028E000014F9142F9D110BD10B504460068FDF7C3
:1028F000D7FC00280CBF2046002010BD024A034B25
:1029000012681A60704700BF940000241800002469
:1029100000F014BA00F016BA044B1A680AB1034862
:102920007047034A014812681A607047600000242B
:10293000980000240421002008B500F077F9043045
:1029400008BD00BF09B100F0B9B80846704700BF24
:1029500008B520B10846042100F068F9043008BD2C
:102960000A4618B10168104600F010B8704700BF61
:1029700030B10421002008B500F058F9043008BD3A
:10298000704700BF004870476C0000242DE9F041FB
:1029900082B004460191042100F050F9014620461E
:1029A000677D00F07DF90421204600F017F900282A
:1029B00039D1D4E90135AB4230D95E1BA36023691C
:1029C0002046C6F1040833444146236100F012F961
:1029D00000284CD0237D012B63D09DF807302B704D
:1029E000002E51D09DF80630012E6B7050D09DF80E
:1029F0000530022EAB704FD09DF80430EB70236988
:102A00000421A2680433A07D424461759E1B80F0BE
:102A10000100A260266102B0BDE8F08104212046D9
:102A200000F0E8F8D0B1237D012BA3681CD09DF8FD
:102A300007009DF806209DF805101870A3685A70CD
:102A4000A3689DF804209970A368DA700421A26835
:102A500023690A4461750B44A2602361A07D80F064
:102A6000010002B0BDE8F081019A1A60EEE7A268A9
:102A70002369A07D921B9B1B677580F00100A260FB
:102A8000236102B0BDE8F081A3689DF806201A70AA
:102A9000A3689DF805201A70A3689DF804201A7099
:102AA000ADE7284601AD32462946FFF70FFF424603
:102AB000A919A068FFF70AFFA1E700BF2DE9F843B5
:102AC00004460D46042100F0B9F80146204694F86A
:102AD000158000F0E5F80421204600F07FF800287A
:102AE00038D1D4E90176B7422FD923692046A760AF
:102AF000BF1B3B44C7F104092361494600F07AF843
:102B0000002846D0237D012B5CD0F3782B70002F5A
:102B10004CD0B378012F6B7005F102034AD0737863
:102B2000022FAB7005F1030348D03378EB702369B3
:102B30000421A2680433A07D4A446175DB1B80F048
:102B40000100A2602361BDE8F8830421204600F063
:102B500051F8B0B1237D012BA36817D0DB782B701F
:102B6000A3689B786B70A3685B78AB70A3681B78D5
:102B7000EB700421A26823690A4461750B44A260CA
:102B80002361A07D80F00100BDE8F8831B682B6005
:102B9000EFE7A2682369D21BA07DDB1B84F81580B8
:102BA00080F00100A2602361BDE8F883A3689B78F0
:102BB0006B70AB1CA268527803F8012BA2681278E4
:102BC0001A70B4E731463A462846FFF77FFE4A4678
:102BD000E819A168FFF77AFEA9E700BF837D3BB93A
:102BE000D0E901031944884234BF00200120704716
:102BF00000207047837D43B9D0E9012110B591428F
:102C0000044605D20123184610BD0023184670471C
:102C100082693AB1C169904780F00103A075DBB2C7
:102C2000184610BD0120A075FAE700BFB0FBF1F215
:102C300002FB11004B1E081A18407047437D8B425F
:102C400009D203694A1EB3FBF1F001FB1030091AE7
:102C500001EA020070470020704700BFD0E9012060
:102C6000101A704738B5837DA3B904460D46D0E9E4
:102C700001329A4200D331B92046FFF7EFFFA84254
:102C800028BF284638BD836933B1C1699847A0750C
:102C90000028F1D0002038BD01238375FAE700BF7A
:102CA00038B504460D46FFF799FF78B12369A2684D
:102CB0002B442A4423610123A260637538BDA268B6
:102CC0002D1A236902441844A2602061294601227A
:102CD0002046FFF7C7FF0028F1D10123637538BDF7
:102CE0002DE9F041056804460E462846FDF7D8FA5E
:102CF000C8B1114B1B689D4212D1D4F80480D8F89A
:102D000000406CB1D8F808500027043D314655F812
:102D1000040FFDF7C5FABB0040B10137BC42F5D145
:102D20000020BDE8F0812046BDE8F081D8F81020F1
:102D3000BDE8F041D358184794000024003818BF6C
:102D400001207047704700BFF8B500BFF8BC08BC51
:102D50009E467047F8B500BFF8BC08BC9E46704759
:102D60000000000001020304010203040607080931
:102D70007374645F6D73677300000000726F736932
:102D8000646C5F74797065737570706F72745F696D
:102D90006E74726F7370656374696F6E5F635F5F8B
:102DA0006765745F6D6573736167655F747970657E
:102DB0005F737570706F72745F68616E646C655F6D
:102DC0005F7374645F6D7367735F5F6D73675F5F7D
:102DD000496E743332000000726F7369646C5F7403
:102DE000797065737570706F72745F6D6963726FFF
:102DF000787263656464735F635F5F6765745F6D5A
:102E00006573736167655F747970655F7375707002
:102E10006F72745F68616E646C655F5F7374645F2A
:102E20006D7367735F5F6D73675F5F496E74333295
:102E300000000000726F7369646C5F747970657371
:102E40007570706F72745F696E74726F73706563A2
:102E500074696F6E5F630000726F7369646C5F7496
:102E6000797065737570706F72745F6D6963726F7E
:102E7000787263656464735F630000007374645FF9
:102E80006D7367735F5F6D736700000064617461E9
:102E9000000000007374645F6D7367733A3A6D737A
:102EA00067000000726F7369646C5F74797065739A
:102EB0007570706F72745F6300000000342E00083C
:102EC000582E000802000000702D0008BC2E0008DB
:102ED000D82E0008100000247C2D0008D82D0008F2
:102EE0007C2E0008D02D0008010000000400000026
:0C2EF00024000024112900081529000806
:082EFC00A4D3FF7F01000000D8
:082F04001D030008FD28000870
:042F0C00F5020008C2
:102F1000100000000090D0030090D003AAAAAAAA33
:102F2000192900088529000800000000C42E0008A7
:102F3000E12C00088C2E00080D00000000000000AD
:102F40000000000000000000000000000000000081
:102F50000000000000000000000000000000000071
:102F60000000000000000000000000000000000061
:102F700000000000E02E0008E9280008582E000894
:102F800078000024E9280008942E0008D02D0008BD
:102F90006129000845290008712900085129000805
:0C2FA00035290008A42E0008342E00087B
:040000050800281DAA
:00000001FF
