:020000040810E2
:10000000008004103D241008A90E1008AB0E100843
:10001000AD0E1008AF0E1008B10E10080000000061
:10002000000000000000000000000000B30E1008F7
:10003000B50E100800000000B70E1008B90E100829
:10004000D9241008D9241008D9241008D92410085C
:10005000D9241008D9241008D9241008D92410084C
:10006000D9241008D9241008D9241008D92410083C
:10007000D9241008D9241008D9241008D92410082C
:10008000D9241008D9241008D9241008D92410081C
:10009000D9241008D9241008D9241008D92410080C
:1000A000D9241008D9241008D9241008D9241008FC
:1000B000D9241008D9241008D9241008D9241008EC
:1000C000D9241008D9241008D9241008D9241008DC
:1000D000D9241008D9241008D9241008D9241008CC
:1000E000D9241008D924100800000000D9241008D1
:1000F000D9241008D9241008D9241008D9241008AC
:10010000D9241008D9241008D9241008D92410089B
:10011000D9241008D9241008D9241008D92410088B
:10012000D9241008D9241008D9241008D92410087B
:10013000D9241008D9241008D9241008D92410086B
:10014000D9241008D9241008000000000000000085
:10015000D9241008D9241008D9241008D92410084B
:10016000D9241008D9241008D9241008D92410083B
:10017000D9241008D9241008D9241008D92410082B
:10018000D9241008D9241008D9241008D92410081B
:10019000D9241008D9241008D9241008D92410080B
:1001A000D9241008D9241008D9241008D9241008FB
:1001B000D9241008D9241008D9241008D9241008EB
:1001C000D9241008D9241008D9241008D9241008DB
:1001D000D9241008D9241008D9241008D9241008CB
:1001E000D9241008D9241008D9241008D9241008BB
:1001F000D9241008D9241008D9241008D9241008AB
:10020000D9241008D9241008D9241008D92410089A
:10021000D9241008D9241008D9241008D92410088A
:10022000D9241008D9241008D9241008000000008F
:10023000D9241008D9241008D9241008D92410086A
:10024000D9241008D9241008D9241008D92410085A
:10025000D9241008D9241008D9241008D92410084A
:10026000D9241008D9241008D9241008D92410083A
:10027000D9241008D9241008D9241008D92410082A
:10028000D9241008D9241008D9241008000000002F
:08029000D9241008D92410083C
:1002980080F0004002E000BF81F0004142001FBF33
:1002A8005FEA410392EA030F7FEA226C7FEA236C3C
:1002B8006AD04FEA1262D2EB1363C1BFD218414031
:1002C80048404140B8BF5B42192B88BF704710F0C7
:1002D800004F40F4000020F07F4018BF404211F06A
:1002E800004F41F4000121F07F4118BF494292EAD2
:1002F800030F3FD0A2F1010241FA03FC10EB0C00FE
:10030800C3F1200301FA03F100F0004302D549428A
:1003180060EB4000B0F5000F13D3B0F1807F06D337
:1003280040084FEA310102F10102FE2A51D2B1F12F
:10033800004F40EBC25008BF20F0010040EA030024
:100348007047490040EB0000013A28BFB0F5000FA4
:10035800EDD2B0FA80FCACF1080CB2EB0C0200FA5A
:100368000CF0AABF00EBC25052421843BCBFD040A9
:100378001843704792F0000F81F4000106BF80F423
:1003880000000132013BB5E74FEA41037FEA226CE6
:1003980018BF7FEA236C21D092EA030F04D092F0B1
:1003A800000F08BF0846704790EA010F1CBF0020E5
:1003B800704712F07F4F04D1400028BF40F0004042
:1003C800704712F100723CBF00F50000704700F062
:1003D800004343F0FE4040F4000070477FEA226289
:1003E80016BF08467FEA23630146420206BF5FEA5A
:1003F800412390EA010F40F4800070474FF000035A
:1004080004E000BF10F0004348BF40425FEA000C20
:1004180008BF704743F0964301464FF000001CE0C8
:1004280050EA010208BF70474FF000030AE000BF1E
:1004380050EA010208BF704711F0004302D540425C
:1004480061EB41015FEA010C02BF844601460020CE
:1004580043F0B64308BFA3F18053A3F50003BCFAE9
:100468008CF2083AA3EBC25310DB01FA02FC634496
:1004780000FA02FCC2F12002BCF1004F20FA02F29D
:1004880043EB020008BF20F00100704702F1200290
:1004980001FA02FCC2F1200250EA4C0021FA02F2F1
:1004A80043EB020008BF20EADC7070474FF0FF0CF6
:1004B8001CEAD0521EBF1CEAD15392EA0C0F93EAF1
:1004C8000C0F6FD01A4480EA010C400218BF5FEA93
:1004D80041211ED04FF0006343EA501043EA511106
:1004E800A0FB01310CF00040B1F5000F3EBF490000
:1004F80041EAD3715B0040EA010062F17F02FD2A04
:100508001DD8B3F1004F40EBC25008BF20F00100E6
:10051800704790F0000F0CF0004C08BF49024CEAFD
:10052800502040EA51207F3AC2BFD2F1FF0340EA8F
:10053800C250704740F400004FF00003013A5DDC00
:1005480012F1190FDCBF00F000407047C2F1000241
:10055800410021FA02F1C2F1200200FA02FC5FEA2E
:10056800310040F1000053EA4C0308BF20EADC7078
:10057800704792F0000F00F0004C02BF400010F4EA
:10058800000F013AF9D040EA0C0093F0000F01F097
:10059800004C02BF490011F4000F013BF9D041EAB9
:1005A8000C018FE70CEAD15392EA0C0F18BF93EABB
:1005B8000C0F0AD030F0004C18BF31F0004CD8D1E5
:1005C80080EA010000F00040704790F0000F17BF6C
:1005D80090F0004F084691F0000F91F0004F14D0B2
:1005E80092EA0C0F01D142020FD193EA0C0F03D10A
:1005F8004B0218BF084608D180EA010000F000400D
:1006080040F0FE4040F40000704740F0FE4040F4E7
:10061800400070474FF0FF0C1CEAD0521EBF1CEA86
:10062800D15392EA0C0F93EA0C0F69D0A2EB0302A4
:1006380080EA010C49024FEA402037D04FF080533E
:1006480043EA111143EA10130CF000408B4238BF03
:100658005B0042F17D024FF4000C8B4224BF5B1A11
:1006680040EA0C00B3EB510F24BFA3EB510340EA5F
:100678005C00B3EB910F24BFA3EB910340EA9C000D
:10068800B3EBD10F24BFA3EBD10340EADC001B017D
:1006980018BF5FEA1C1CE0D1FD2A3FF650AF8B4221
:1006A80040EBC25008BF20F0010070470CF0004C2E
:1006B8004CEA50207F32C2BFD2F1FF0340EAC25059
:1006C800704740F400004FF00003013A37E792F01A
:1006D800000F00F0004C02BF400010F4000F013A78
:1006E800F9D040EA0C0093F0000F01F0004C02BF73
:1006F800490011F4000F013BF9D041EA0C0195E7DC
:100708000CEAD15392EA0C0F08D142027FF47DAF74
:1007180093EA0C0F7FF470AF084676E793EA0C0F64
:1007280004D14B023FF44CAF08466EE730F0004C62
:1007380018BF31F0004CCAD130F000427FF45CAFF2
:1007480031F000437FF43CAF5FE700BF42000ED2B8
:10075800B2F1FE4F0BD34FF09E03B3EB126209D4F4
:100768004FEA002343F0004323FA02F070474FF0AA
:100778000000704712F1610F01D1420202D14FF01F
:10078800FF3070474FF00000704700BF0348044B2C
:10079800834202D0034B03B1184770471000001082
:1007A80010000010000000000548064B1B1AD90F66
:1007B80001EBA301491002D0034B03B1184770475E
:1007C80010000010100000100000000010B5064CCA
:1007D800237843B9FFF7DAFF044B13B10448AFF3AA
:1007E80000800123237010BD1000001000000000DD
:1007F8003425100808B5054B1BB105490548AFF36A
:100808000080BDE80840FFF7CFBF00BF0000000030
:1008180014000010342510082DE9F04389B003AD09
:10082800002403940494059406940794274BD3F862
:10083800E02042F00802C3F8E020D3F8E02002F0FC
:1008480008020192019AD3F8E02042F00202C3F8AC
:10085800E020D3F8E03003F002030293029BDFF8B4
:10086800708022460221404601F0C3FA194F224601
:1008780044F20101384601F0BCFA012603960494BB
:100888004FF00209CDF814902946404601F098F936
:10089800CDF80C900496059406942946404601F03C
:1008A8008FF903960496059406942946384601F074
:1008B80087F94FF4804303930496059406942946D8
:1008C800384601F07DF909B0BDE8F08300440258CC
:1008D800000C02580004025882B072B610E0009B67
:1008E80001330093009A0C4B9A42F8DD0B4B4FF002
:1008F80080429A6100230193019A074B9A4206DDD0
:10090800064B4FF480429A6100230093EAE7019B6B
:1009180001330193F0E700BF1FA10700000402584C
:1009280000B59DB04C22002109A801F0D3FD20227A
:10093800002101A801F0CEFD042001F061FA002396
:100948000093274BDA6A22F00102DA62DB6A03F0CD
:1009580001030093234A936923F4404343F400437B
:100968009361936903F440430093009B1D4B9B697B
:1009780013F4005FFAD00223099301220C9240225B
:100988000D92129300221392042114911C211591A7
:1009980016930521179118930C2319931A924FF463
:1009A80080631B9309A800F01FFBA0B93F230193A4
:1009B8000323029303900490402306934FF480622C
:1009C80007920593089304210DEB010000F07EFFC8
:1009D80018B91DB000BDFFF77FFFFFF77DFF00BF0F
:1009E800000400580048025800B589B01C4BD3F8E1
:1009F800E82042F00102C3F8E820D3F8E83003F019
:100A080001030093009B0023049305930693079327
:100A180001930293039313484FF0804202604360AE
:100A280083604FF0FF32C2600361836101F0C2FB53
:100A380080B94FF48053049304A90A4801F0F6FBE7
:100A480050B90190039001A9064801F08BFC28B920
:100A580009B000BDFFF740FFFFF73EFFFFF73CFF7F
:100A6800004402582C000010F0B585B0B24AD2F804
:100A7800E03043F00203C2F8E0300023019302E0C3
:100A8800019B01330193019A42F20F739A42F7DDF9
:100A9800AA4B1A6822F003021A601A6842F001028F
:100AA8001A601A6822F040521A601A6842F080529E
:100AB8001A60002118E0029B01330293029AA04BAE
:100AC8009A42F8DD9D4B4FF480329A614FF0804294
:100AD8009A610023039302E0039B01330393039A73
:100AE800974B9A42F8DD0131012908DC934B01222A
:100AF8009A614FF480429A6100230293DEE701F085
:100B0800EDF9FFF70DFF8F4B4FF001629A60FFF789
:100B180083FEFFF769FF01F041F80246864BDB6967
:100B280013F0400F00D04200874BA3FB02139B0C2D
:100B380086498A4200D9013B854D2A689362002480
:100B480054620121284601F0B7FA284601F070FAEC
:100B58000CE07A4D0123AB61C82001F01DFA4FF477
:100B68008033AB61C82001F017FA0134012CF0DDA5
:100B78004FF4FA7001F010FA704C4FF48043A361FF
:100B88004FF47A7001F008FA4FF08043A3614FF4F4
:100B9800FA7001F001FA01F0F9F9044618E06D4E17
:100BA80001220221304601F024F9644D0123AB6192
:100BB8004FF4FA7001F0F0F900220221304601F0FA
:100BC80018F94FF48033AB614FF4FA7001F0E4F98F
:100BD80001F0DCF9031B41F287329342DFD94FF46D
:100BE8007A7001F0D9F900240FE0544D4FF4804396
:100BF800AB614FF4FA7001F0CFF94FF08043AB616D
:100C08004FF4FA7001F0C8F90134012CEDDD4FF40E
:100C1800FA7001F0C1F901F0B9F9044608E0474B50
:100C280001229A614FF080429A61322001F0B4F9B2
:100C380001F0ACF9031B41F2873293420DD8012130
:100C4800444801F0CFF80128E9D03C4B4FF48032FA
:100C58009A614FF480429A61E7E7384B4FF480324B
:100C68009A614FF080429A6141F2883001F094F91C
:100C780000240FE0314D4FF48043AB614FF4FA701C
:100C880001F08AF94FF08043AB614FF4FA7001F03C
:100C980083F90134022CEDDD4FF4FA7001F07CF990
:100CA80000242646254615E001212A4801F09AF835
:100CB8000746012850D0214F4FF48043BB614FF4C1
:100CC800967001F069F94FF08043BB61C82001F0CC
:100CD80063F90134092C60DC002202211D4801F06F
:100CE80088F81B4B1A6800235362536A012BFCD9FE
:100CF80001220221174801F07CF8154B1A680023DD
:100D08005362536A092BFCD900220221114801F0D1
:100D180070F80F4B1B685F6A01210E4801F062F8FA
:100D28000028C1D10A4B1B685B6ADB1B4EF66022A8
:100D38009342F1D9B8E700BF0044025800040258B2
:100D4800BFC62D0000ED00E083DE1B433F420F00CD
:100D58002C000010000C02584D4B1B685D6A0121E5
:100D68004C4801F03FF8012807D1494B1B685B6AE2
:100D78005B1B4CF250329342F1D9454B1B685E6ABB
:100D8800761B454D0123AB614FF4967001F004F9D1
:100D98004FF48033AB613D4698E74FF47A7001F029
:100DA800FBF825B93C4B4FF480429A61FEE73A23A1
:100DB800B6FBF3F64AE001270024A7420FD9364DC7
:100DC8000123AB61962001F0E7F84FF48033AB6163
:100DD800962001F0E1F80134EFE71427ECE740F240
:100DE800DC5001F0D9F8002202212A4801F001F86C
:100DF800274B1A6800235362536A012BFCD901223E
:100E08000221244800F0F5FF214B1A6800235362A1
:100E1800536A092BFCD9002202211E4800F0E9FF81
:100E28001B4B1B685C6A01211A4800F0DBFF38B9CC
:100E3800174B1B685B6A1B1B4EF660229342F2D964
:100E48000121144800F0CEFF012805D0002EB2D0B1
:100E5800142EC2D83746AFE70D4B1B685C6A0121D8
:100E68000C4800F0BFFF012808D0094B1B685E6AD8
:100E7800361B0A4BA3FB06367609E7E7044B1B68CB
:100E88005B6A1B1B4CF250329342E8D9EDE700BF76
:100E98002C000010000C02580004025809CB3D8DAC
:100EA800FEE7FEE7FEE7FEE7FEE77047704770479C
:100EB80008B501F05FF808BD82B0074BD3F8F420FD
:100EC80042F00202C3F8F420D3F8F43003F002032E
:100ED8000193019B02B07047004402580368B3F1C4
:100EE800804F00D0704782B0074BD3F8E82042F01B
:100EF8000102C3F8E820D3F8E83003F001030193B6
:100F0800019B02B0704700BF00440258002808DB6C
:100F18000901C9B200F1604000F5614080F8001392
:100F2800704700F00F000901C9B2014B195470470E
:100F380014ED00E000B500F00700A0F1030CBCF1CF
:100F4800040F07D8C0F1070E0430062806D84FF062
:100F5800000C03E04FF0040E4FF0000C4FF0FF338D
:100F680003FA0EF021EA000101FA0CF103FA0CF37E
:100F780022EA030241EA020000BD0000074AD368E2
:100F880023F4E0631B041B0C000200F4E06003433D
:100F980043F0BF6343F40033D360704700ED00E0D3
:100FA80010B50446054BD868C0F30220FFF7C2FF0E
:100FB80001462046FFF7AAFF10BD00BF00ED00E084
:100FC8000138B0F1807F0BD24FF0E0235861054A19
:100FD800F02182F823100020986107221A617047D7
:100FE8000120704700ED00E0002800F03C8338B590
:100FF8000446036813F0010F25D0944A136903F0DF
:101008003803926A102B15D0182B0FD06368B3F5EC
:10101800803F3FD0002B53D18C4B1A6822F480328A
:101028001A601A6822F480221A6038E002F003027B
:10103800022AEBD1854B1B6813F4003F03D0636889
:10104800002B00F01283236813F0020F00F0A18038
:101058007E4A1369926A13F038035AD0182B55D078
:10106800E368002B00F0DE8078490A6822F0190254
:1010780013430B6000F08AFF0546744B1B6813F09E
:10108800040F40F0AD8000F081FF401B0228F4D926
:101098000320F1E26D4A136843F4803313606368F8
:1010A8002BB300F073FF0546684B1B6813F4003F31
:1010B800C9D100F06BFF401B6428F5D90320DBE29F
:1010C800B3F5A02F09D0614B1A6822F480321A6058
:1010D8001A6822F480221A60E1E75C4B1A6842F42D
:1010E80080221A601A6842F480321A60D7E700F04A
:1010F8004DFF0546554B1B6813F4003FA3D000F085
:1011080045FF401B6428F5D90320B5E212F0030F10
:10111800A6D14E4B1B6813F0040F03D0E368002BD5
:1011280000F0A582494A136823F01903E1680B43CC
:10113800136000F02BFF0546444B1B6813F0040FA7
:1011480006D100F023FF401B0228F5D9032093E2C3
:1011580000F036FF41F20303984212D82269402A70
:1011680007D03A494B6823F47C3343EA02334B6097
:101178000FE0364A536823F47C3343F4003353605A
:1011880007E0324A536823F0FE43216943EA0163CA
:101198005360236813F0100F00F088802B4A1369FE
:1011A80003F03803926A082B56D0182B50D0E36905
:1011B800002B00F0B880254A136843F080031360C1
:1011C80000F0E4FE0546214B1B6813F4807F40F0D5
:1011D800888000F0DBFE401B0228F4D903204BE294
:1011E80000F0EEFE41F20303984212D82269402A29
:1011F80007D016494B6823F47C3343EA02334B602B
:10120800C7E7124A536823F47C3343F4003353602E
:10121800BFE70E4A536823F0FE43216943EA01639E
:101228005360B6E7094A136823F00103136000F01E
:10123800ADFE0546054B1B6813F0040FA9D000F05E
:10124800A5FE401B0228F5D9032015E200440258E8
:1012580002F00302012AAAD1994B1B6813F4807F7C
:1012680003D0E369802B40F0048200F0A9FE41F22C
:101278000303984212D8226A202A07D090494B6863
:1012880023F0F84343EA82634B600FE08C4A5368CB
:1012980023F0F84343F08043536007E0884AD3685B
:1012A80023F07C53216A43EA0163D360236813F077
:1012B800080F60D06369002B49D0814A536F43F00F
:1012C8000103536700F062FE05467D4B5B6F13F028
:1012D800020F50D100F05AFE401B0228F5D9032016
:1012E800CAE100F06DFE41F20303984212D8226A67
:1012F800202A07D072494B6823F0F84343EA8263F7
:101308004B60D3E76E4A536823F0F84343F08043B9
:101318005360CBE76A4AD36823F07C53216A43EAD7
:101328000163D360C2E7664A136823F08003136041
:1013380000F02CFE0546624B1B6813F4807FB5D085
:1013480000F024FE401B0228F5D9032094E15C4AF2
:10135800536F23F00103536700F018FE0546584BFE
:101368005B6F13F0020F06D000F010FE401B02283E
:10137800F5D9032080E1236813F0200F29D0A36951
:101388009BB14F4A136843F48053136000F0FEFD8D
:1013980005464B4B1B6813F4005F1AD100F0F6FDAD
:1013A800401B0228F5D9032066E1454A136823F457
:1013B8008053136000F0EAFD0546414B1B6813F4A7
:1013C800005F06D000F0E2FD401B0228F5D903209B
:1013D80052E1236813F0040F21D1636A002B00F057
:1013E8004A81374A126902F03802182A00F0F1805F
:1013F800022B7AD0324A136823F08073136000F00E
:10140800C5FD04462E4B1B6813F0007F00F0DF80FB
:1014180000F0BCFD001B0228F4D903202CE1294A66
:10142800136843F48073136000F0B0FD0546254B44
:101438001B6813F4807F06D100F0A8FD401B6428C8
:10144800F5D9032018E1A368012B0AD00BBB1C4B6C
:101458001A6F22F001021A671A6F22F004021A6743
:1014680004E0174A136F43F001031367A3685BB3E3
:1014780000F08CFD0546124B1B6F13F0020FACD128
:1014880000F084FD401B41F288339842F3D90320D1
:10149800F2E0052B09D00A4B1A6F22F001021A67F5
:1014A8001A6F22F004021A67E0E7054B1A6F42F040
:1014B80004021A671A6F42F001021A67D6E700BFE2
:1014C800004402580048025800F060FD0546724B7F
:1014D8001B6F13F0020F80D000F058FD401B41F243
:1014E80088339842F3D90320C6E06B4A136823F087
:1014F8008073136000F04AFD0546674B1B6813F0C4
:10150800007F06D000F042FD401B0228F5D90320D9
:10151800B2E0614B9A6A22F47C7222F00302A16A5B
:10152800E06A41EA00110A439A62226B013AC2F367
:101538000802616B0139490289B20A43A16B01397A
:10154800090401F4FE010A43E16B0139090601F0BF
:10155800FE410A431A63DA6A22F00102DA625A6B20
:101568006FF3CF02A16C42EAC1025A63DA6A22F031
:101578000C02216C0A43DA62DA6A22F00202616C18
:101588000A43DA62DA6A42F48032DA62DA6A42F4E8
:101598000032DA62DA6A42F48022DA62DA6A42F007
:1015A8000102DA621A6842F080721A6000F0EEFCFA
:1015B8000446394B1B6813F0007F06D100F0E6FCA7
:1015C800001B0228F5D9032056E0002054E0002033
:1015D80052E0314A916A106B012B4ED001F003039F
:1015E800A26A93424BD1C1F30511E36A994248D1EB
:1015F800C0F30802236B013B9A4244D1C0F3462250
:10160800636B013B9A4240D1C0F30642A36B013B96
:101618009A423CD1C0F30660E36B013B984238D153
:101628001D4B5B6BC3F3CC03A26C9A4201D1002023
:1016380022E0194AD36A23F00103D36200F0A6FC22
:10164800054600F0A3FCA842FBD0134A536B6FF386
:10165800CF03A16C43EAC1035363D36A43F0010388
:10166800D362002008E001207047012004E0012037
:1016780002E0012000E0184638BD0120FCE7012007
:10168800FAE70120F8E70120F6E70120F4E7012056
:10169800F2E70120F0E700BF00440258F8B5844B98
:1016A8001B6903F03803102B00F0F780182B11D0BA
:1016B800002B40F0F6807E4B1B6813F0200F00F0E3
:1016C800F3807B4B1B68C3F3C1037A4A22FA03F306
:1016D8001C46E4E0764B9A6A02F003069A6AC2F363
:1016E8000514D86A00F001005B6BC3F3CC0303FB5D
:1016F80000F0FEF783FE05460746002C00F0CF8079
:10170800012E56D0022E00F08480002E40F0A380D7
:10171800674B1B6813F0200F29D0654E3368C3F35D
:10172800C1036448D840FEF769FE07462046FEF725
:1017380065FE01463846FEF76DFF0746306BC0F37D
:101748000800FEF75BFE04464FF064512846FEF79A
:10175800ADFE01462046FEF7A1FD4FF07E51FEF793
:101768009DFD01463846FEF7A1FE044642E02046AC
:10177800FEF744FE01465048FEF74CFF05464C4B29
:10178800186BC0F30800FEF739FE04464FF06451A9
:101798003846FEF78BFE01462046FEF77FFD4FF0E8
:1017A8007E51FEF77BFD01462846FEF77FFE044684
:1017B80020E02046FEF722FE01464048FEF72AFFB9
:1017C80005463B4B186BC0F30800FEF717FE0446AE
:1017D8004FF064513846FEF769FE01462046FEF791
:1017E8005DFD4FF07E51FEF759FD01462846FEF794
:1017F8005DFE04462E4B1B6BC3F34623581CFEF7B5
:10180800FDFD01462046FEF705FFFEF79FFF044653
:1018180045E02046FEF7F2FD01462948FEF7FAFEAC
:101828000546234B186BC0F30800FEF7E7FD044696
:101838004FF064513846FEF739FE01462046FEF760
:101848002DFD4FF07E51FEF729FD01462846FEF793
:101858002DFE0446CEE72046FEF7D0FD0146174888
:10186800FEF7D8FE0546124B186BC0F30800FEF7CA
:10187800C5FD04464FF064513846FEF717FE014691
:101888002046FEF70BFD4FF07E51FEF707FD01469F
:101898002846FEF70BFE0446ACE70A4B1C462046DA
:1018A800F8BD094B1C46FAE7024B1C46F7E700BF98
:1018B800004402580090D0030024744C0024744A59
:1018C80020BCBE4B40787D0100093D00002800F097
:1018D800318170B50D4604469A4B1B6803F00F031F
:1018E8008B420BD2974A136823F00F030B43136004
:1018F800136803F00F038B4240F01E81236813F036
:10190800040F0CD02269904B9B6903F070039A4234
:1019180005D98D498B6923F070031A438A612368BE
:1019280013F0080F0CD06269874BDB6903F0700372
:101938009A4205D98449CB6923F070031A43CA61D6
:10194800236813F0100F0CD0A2697F4BDB6903F4F6
:10195800E0639A4205D97C49CB6923F4E0631A43D2
:10196800CA61236813F0200F0CD0E269764B1B6A1A
:1019780003F070039A4205D973490B6A23F0700388
:101988001A430A62236813F0020F0CD0E2686E4B08
:101998009B6903F00F039A4205D96B498B6923F0C1
:1019A8000F031A438A61236813F0010F41D0664A76
:1019B800936923F47063A1680B4393616368022BF6
:1019C8000AD0032B27D0012B2CD05F4A126812F0C3
:1019D800040F06D10120ACE0126812F4003F00F0B9
:1019E800AD8059490A6922F0070213430B6100F0E0
:1019F800CDFA0646544B1B6903F038036268B3EB13
:101A0800C20F16D000F0C2FA801B41F28833984208
:101A1800F0D903208DE04C4A126812F0007FE0D123
:101A2800012086E0484A126812F4807FD9D101204B
:101A38007FE0236813F0020F0CD0E268424B9B69E9
:101A480003F00F039A4205D23F498B6923F00F0335
:101A58001A438A613B4B1B6803F00F03AB420AD958
:101A6800384A136823F00F032B431360136803F0FD
:101A78000F03AB4264D1236813F0040F0CD0226922
:101A8800314B9B6903F070039A4205D22E498B694A
:101A980023F070031A438A61236813F0080F0CD0EF
:101AA8006269294BDB6903F070039A4205D2264923
:101AB800CB6923F070031A43CA61236813F0100F2F
:101AC8000CD0A269204BDB6903F4E0639A4205D28B
:101AD8001D49CB6923F4E0631A43CA61236813F0F4
:101AE800200F0CD0E269184B1B6A03F070039A426E
:101AF80005D215490B6A23F070031A430A62FFF7EF
:101B0800CDFD11498B69C3F30323104AD35C03F05D
:101B18001F03D8408B6903F00F03D35C03F01F0346
:101B2800D8400B4B18600B4B18600B4B186800F033
:101B3800ADF970BD012070470120FAE70120F8E7F0
:101B48000120F6E700200052004402584C251008F6
:101B5800080000100C0000100400001008B5FFF782
:101B68009DFD0A498B69C3F30323094AD35C03F03B
:101B78001F03D8408B6903F00F03D35C03F01F03E6
:101B8800D840044B1860044B186008BD0044025844
:101B98004C251008080000100C00001008B5FFF7CD
:101BA800DDFF054BDB69C3F30213044AD35C03F082
:101BB8001F03D84008BD00BF004402584C25100838
:101BC80030B583B0864600236FE0DEF808405D003C
:101BD8000320A84024EA0004C868A8402043CEF89F
:101BE8000800DEF8044024EA0C044868C0F300103A
:101BF80098402043CEF804006AE0DC0808345EF818
:101C0800240003F00705AD004FF00F0C0CFA05FC9B
:101C180020EA0C0C0869A84040EA0C004EF82400A1
:101C28006DE0092000E0002000FA0CF0284302349F
:101C3800694D45F824004FF0B0400468D04324EAC9
:101C48000205D1F804C01CF4801F01D042EA040543
:101C58004FF0B0442560646800EA0405D1F804C078
:101C68001CF4001F01D042EA04054FF0B04465603F
:101C7800D4F8C44000EA0405D1F804C01CF4003FBD
:101C880001D042EA04054FF0B044C4F8C450D4F877
:101C9800C04020404D6815F4803F01D042EA04005E
:101CA8004FF0B042C2F8C00001330A6832FA03F0BC
:101CB80000F090804FF0010C0CFA03FC1CEA0202C1
:101CC800F2D0486800F00300013801287FF67DAFA4
:101CD800486800F0030003280BD0DEF80C405D00D4
:101CE8000320A84024EA00048868A8402043CEF8CE
:101CF8000C00486800F0030002283FF47EAFDEF8CD
:101D080000005C004FF0030C0CFA04FC20EA0C0CF9
:101D1800486800F00300A04040EA0C00CEF800003C
:101D2800486810F4403FBFD02C48D0F8F44044F045
:101D38000204C0F8F440D0F8F40000F0020001906A
:101D480001989C08A51C244850F8255003F0030C62
:101D58004FEA8C0C0F2000FA0CF025EA0005204809
:101D680086453FF460AF00F58060864522D000F5D7
:101D78008060864520D000F5806086451ED000F53D
:101D8800806086451CD000F5806086451AD000F535
:101D98008060864518D000F58060864516D000F52D
:101DA8008060864514D000F5806086453FF439AFE1
:101DB8000A2039E7012037E7022035E7032033E717
:101DC800042031E705202FE706202DE707202BE721
:101DD800082029E703B030BD000400580044025829
:101DE800000002580369194201D001207047002001
:101DF80070470AB18161704709048161704700002A
:101E080038B5214BDB6803F00703062B07D01E4BC0
:101E1800DB6803F03F03834234D0012038BD054618
:101E2800194AD36823F03F030343D36000F0AEF8A8
:101E38000446154B5B6813F4005F07D100F0A6F861
:101E4800031BB3F57A7FF4D90120E7E71E2D07D0ED
:101E58002E2D05D01D2D03D02D2D01D00020DDE71E
:101E680000F094F80446084BDB6813F4803F07D170
:101E780000F08CF8001BB0F57A7FF4D90120CDE78B
:101E88000020CBE70020C9E700480258104B1B7818
:101E98000BB90120704710B504460E4A10684FF47C
:101EA8007A72B2FBF3F3B0FBF3F0FFF789F868B985
:101EB8000F2C01D901200AE0024621464FF0FF30DD
:101EC800FFF76EF8044B1C60002000E0012010BDF5
:101ED800000000100C0000100400001010B582B0C3
:101EE8001F4CD4F8D83043F48043C4F8D830D4F821
:101EF800D83003F480430193019B1A4AD2F8003486
:101F08006FF3132343F40143C2F80034D2F80034CA
:101F180043F00103C2F800340320FFF72FF8FFF75E
:101F2800BDFBA369C3F303230F4AD35C03F01F036C
:101F3800D840A36903F00F03D35C03F01F03D84014
:101F48000A4B18600A4B18600020FFF79FFF18B172
:101F58000124204602B010BD0446FEF7ADFFF8E7A5
:101F680000440258004002404C25100808000010A8
:101F78000C000010034B1B78034A11680B441360D4
:101F8800704700BF0000001078000010014B18686F
:101F9800704700BF7800001038B50446FFF7F6FF19
:101FA8000546B4F1FF3F02D0044B1B781C44FFF7F1
:101FB800EDFF401BA042FAD338BD00BF000000105F
:101FC800014B1868000C70470010005C036AD0F8D9
:101FD80020C02CF0010CC0F820C0D0F818C02CF09C
:101FE800F00C4CEA021223F00A030B4382610362ED
:101FF8007047036AD0F820C02CF0100CC0F820C03D
:10200800D0F818C02CF4704C4CEA023223F0A0032C
:1020180043EA0113826103627047836823F4401323
:1020280023F070030B4343F00703836070470000FD
:1020380090F83D30012B35D1022380F83D300368FC
:102048001B4A934220D0B3F1804F1DD0A2F57C42A9
:10205800934219D002F58062934215D002F580624E
:10206800934211D002F5784293420DD0A2F56C420A
:10207800934209D002F59432934205D01A6842F08F
:1020880001021A600020704799680A4A0A40062A25
:102098000AD0B2F5803F09D01A6842F001021A60EE
:1020A80000207047012070470020704700207047CB
:1020B800000001400700010090F83C30012B0ED0D1
:1020C800012380F83C30022280F83D2002685161EB
:1020D80080F83D30002380F83C30184670470220D5
:1020E800704700000368324A904212D0B0F1804F26
:1020F8000FD0A2F57C4290420BD002F5806290424C
:1021080007D002F58062904203D002F578429042EF
:1021180003D123F070034A681343254A90421ED026
:10212800B0F1804F1BD0A2F57C42904217D002F547
:102138008062904213D002F5806290420FD002F57F
:10214800784290420BD002F57052904207D002F5C7
:102158008062904203D002F58062904203D123F45A
:102168004073CA68134323F080034A6913438A689B
:10217800C2620A6882620E4A90420FD002F58062FB
:1021880090420BD002F57052904207D002F580625F
:10219800904203D002F58062904201D10A6902633D
:1021A800026842F004020260012242610360704743
:1021B8000000014060B310B5044690F83D3013B3F9
:1021C800022384F83D30214651F8040BFFF78AFFBB
:1021D800012384F8483084F83E3084F83F3084F88E
:1021E800403084F8413084F8423084F8433084F831
:1021F800443084F8453084F8463084F8473084F811
:102208003D30002010BD80F83C30FEF767FED7E770
:1022180001207047D0F808C02CF47F4C42EA032212
:102228000A4342EA0C0282607047000090F83C3092
:10223800012B00F08F8010B50446012380F83C3054
:10224800022380F83D3002689068434B0340936056
:102258000B68702B55D031D8502B6CD01FD8402B21
:102268000AD1CA6849682068FFF7B0FE4021206893
:10227800FFF7D3FE002029E068D8202B03D00AD826
:102288000BB1102B05D119462068FFF7C6FE0020B8
:102298001CE001201AE0302BF5D0012016E0602B5D
:1022A8000AD1CA6849682068FFF7A3FE6021206840
:1022B800FFF7B3FE002009E0012007E0B3F5005F57
:1022C8002CD00AD8B3F5805F42D10020012384F8CE
:1022D8003D30002384F83C3010BD204A9342D2D0D0
:1022E80007D8B3F5801FCED0B3F1101FCBD0012093
:1022F800ECE71B4A9342C6D010329342C3D0012068
:10230800E4E7CB684A6889682068FFF783FF22689A
:10231800936843F0770393600020D7E7CB684A6857
:1023280089682068FFF776FF2268936843F4804342
:1023380093600020CAE7CA6849682068FFF746FE2C
:1023480050212068FFF769FE0020BFE70120BDE7A4
:102358000120BBE7022070478800CEFF2000100054
:102368003000100090F83C20012A48D010B50346F0
:10237800012280F83C20022280F83D200068426853
:10238800D0F808C0DFF87CE0704503D00EF5806E09
:10239800704503D122F470024C68224322F0700287
:1023A8000C68224342601A68164882421AD0B2F179
:1023B800804F17D0A0F57C40824213D000F5806092
:1023C80082420FD000F5806082420BD000F5784041
:1023D800824207D0A0F56C40824203D000F59430C9
:1023E800824205D12CF0800C896841EA0C01916089
:1023F800012283F83D20002083F83C0010BD022014
:10240800704700BF00000140024A136943F01003FF
:102418001361704700ED00E0054AD36823F002031A
:10242800D360034B5B6813F4005FFAD0704700BFBA
:10243800004802584FF001601C490860BFF34F8FF5
:10244800BFF36F8F1A48016841F470010160BFF350
:102458004F8FBFF36F8F1748016841F4E021016087
:10246800DFF854D0FFF7D8FFFFF7CEFF4FF0016039
:102478000E490860BFF34F8FBFF36F8F0F481049A5
:10248800104A002302E0D458C4500433C4188C42C4
:10249800F9D30D4A0D4C002301E013600432A24227
:1024A800FBD300F01FF8FEF7DFFA704708ED00E0F5
:1024B80088ED00E024ED00E000800410000000102A
:1024C8001000001064251008100000107C00001097
:1024D80000BEFDE702440346934200D1704703F86B
:1024E800011BF9E770B50D4B0D4C00261D1BB6EB13
:1024F800A50F09D100F01AF80A4C0B4B00261D1B3A
:10250800B6EBA50F05D170BD54F8043B98470136CA
:10251800EDE754F8043B98470136F1E75C251008CD
:102528005C2510085C25100860251008F8B500BF68
:10253800F8BC08BC9E467047F8B500BFF8BC08BC9C
:042548009E467047F4
:10254C00000000000102030401020304060708094D
:04255C00FD0710085F
:04256000D507100883
:1025640001000000100000000090D0030090D00390
:040000050810243D7E
:00000001FF
